{
  "_format": "hh-sol-artifact-1",
  "contractName": "TaskManager",
  "sourceName": "contracts/TaskManager.sol",
  "abi": [
    {
      "inputs": [
        {
          "internalType": "address",
          "name": "tokenAddress",
          "type": "address"
        }
      ],
      "stateMutability": "nonpayable",
      "type": "constructor"
    },
    {
      "anonymous": false,
      "inputs": [
        {
          "indexed": false,
          "internalType": "uint256",
          "name": "taskId",
          "type": "uint256"
        }
      ],
      "name": "TaskCancelled",
      "type": "event"
    },
    {
      "anonymous": false,
      "inputs": [
        {
          "indexed": false,
          "internalType": "uint256",
          "name": "taskId",
          "type": "uint256"
        }
      ],
      "name": "TaskCompleted",
      "type": "event"
    },
    {
      "anonymous": false,
      "inputs": [
        {
          "indexed": false,
          "internalType": "uint256",
          "name": "taskId",
          "type": "uint256"
        },
        {
          "indexed": false,
          "internalType": "address",
          "name": "assignee",
          "type": "address"
        },
        {
          "indexed": false,
          "internalType": "uint256",
          "name": "reward",
          "type": "uint256"
        }
      ],
      "name": "TaskCreated",
      "type": "event"
    },
    {
      "inputs": [
        {
          "internalType": "uint256",
          "name": "taskId",
          "type": "uint256"
        }
      ],
      "name": "cancelTask",
      "outputs": [],
      "stateMutability": "nonpayable",
      "type": "function"
    },
    {
      "inputs": [
        {
          "internalType": "address",
          "name": "owner",
          "type": "address"
        },
        {
          "internalType": "uint256",
          "name": "rewardAmount",
          "type": "uint256"
        }
      ],
      "name": "checkAllowance",
      "outputs": [
        {
          "internalType": "bool",
          "name": "",
          "type": "bool"
        }
      ],
      "stateMutability": "view",
      "type": "function"
    },
    {
      "inputs": [
        {
          "internalType": "uint256",
          "name": "taskId",
          "type": "uint256"
        }
      ],
      "name": "completeTask",
      "outputs": [],
      "stateMutability": "nonpayable",
      "type": "function"
    },
    {
      "inputs": [
        {
          "internalType": "address",
          "name": "assignee",
          "type": "address"
        },
        {
          "internalType": "uint256",
          "name": "reward",
          "type": "uint256"
        }
      ],
      "name": "createTask",
      "outputs": [],
      "stateMutability": "nonpayable",
      "type": "function"
    },
    {
      "inputs": [],
      "name": "getAllTasks",
      "outputs": [
        {
          "components": [
            {
              "internalType": "address",
              "name": "assignee",
              "type": "address"
            },
            {
              "internalType": "address",
              "name": "creator",
              "type": "address"
            },
            {
              "internalType": "uint256",
              "name": "reward",
              "type": "uint256"
            },
            {
              "internalType": "bool",
              "name": "isCompleted",
              "type": "bool"
            },
            {
              "internalType": "bool",
              "name": "isCancelled",
              "type": "bool"
            }
          ],
          "internalType": "struct TaskManager.Task[]",
          "name": "",
          "type": "tuple[]"
        }
      ],
      "stateMutability": "view",
      "type": "function"
    },
    {
      "inputs": [],
      "name": "nextTaskId",
      "outputs": [
        {
          "internalType": "uint256",
          "name": "",
          "type": "uint256"
        }
      ],
      "stateMutability": "view",
      "type": "function"
    },
    {
      "inputs": [
        {
          "internalType": "uint256",
          "name": "",
          "type": "uint256"
        }
      ],
      "name": "tasks",
      "outputs": [
        {
          "internalType": "address",
          "name": "assignee",
          "type": "address"
        },
        {
          "internalType": "address",
          "name": "creator",
          "type": "address"
        },
        {
          "internalType": "uint256",
          "name": "reward",
          "type": "uint256"
        },
        {
          "internalType": "bool",
          "name": "isCompleted",
          "type": "bool"
        },
        {
          "internalType": "bool",
          "name": "isCancelled",
          "type": "bool"
        }
      ],
      "stateMutability": "view",
      "type": "function"
    },
    {
      "inputs": [],
      "name": "token",
      "outputs": [
        {
          "internalType": "contract IERC20",
          "name": "",
          "type": "address"
        }
      ],
      "stateMutability": "view",
      "type": "function"
    }
  ],
  "bytecode": "0x60806040523480156200001157600080fd5b50604051620015ca380380620015ca8339818101604052810190620000379190620000e8565b806000806101000a81548173ffffffffffffffffffffffffffffffffffffffff021916908373ffffffffffffffffffffffffffffffffffffffff160217905550506200011a565b600080fd5b600073ffffffffffffffffffffffffffffffffffffffff82169050919050565b6000620000b08262000083565b9050919050565b620000c281620000a3565b8114620000ce57600080fd5b50565b600081519050620000e281620000b7565b92915050565b6000602082840312156200010157620001006200007e565b5b60006200011184828501620000d1565b91505092915050565b6114a0806200012a6000396000f3fe608060405234801561001057600080fd5b50600436106100885760003560e01c8063e1e295581161005b578063e1e295581461012b578063f50e99fc14610147578063fc0c546a14610163578063fdc3d8d71461018157610088565b80633daba0d71461008d578063779900b4146100bd5780637eec20a8146100db5780638d977672146100f7575b600080fd5b6100a760048036038101906100a29190610d6a565b61019f565b6040516100b49190610dc5565b60405180910390f35b6100c561024d565b6040516100d29190610f24565b60405180910390f35b6100f560048036038101906100f09190610f46565b6103f3565b005b610111600480360381019061010c9190610f46565b6105d8565b604051610122959493929190610f91565b60405180910390f35b61014560048036038101906101409190610f46565b610668565b005b610161600480360381019061015c9190610d6a565b610927565b005b61016b610c48565b6040516101789190611043565b60405180910390f35b610189610c6c565b604051610196919061105e565b60405180910390f35b60008060008054906101000a900473ffffffffffffffffffffffffffffffffffffffff1673ffffffffffffffffffffffffffffffffffffffff1663dd62ed3e85306040518363ffffffff1660e01b81526004016101fd929190611079565b602060405180830381865afa15801561021a573d6000803e3d6000fd5b505050506040513d601f19601f8201168201806040525081019061023e91906110b7565b90508281101591505092915050565b6060600060025467ffffffffffffffff81111561026d5761026c6110e4565b5b6040519080825280602002602001820160405280156102a657816020015b610293610c72565b81526020019060019003908161028b5790505b50905060005b6002548110156103eb57600160008281526020019081526020016000206040518060a00160405290816000820160009054906101000a900473ffffffffffffffffffffffffffffffffffffffff1673ffffffffffffffffffffffffffffffffffffffff1673ffffffffffffffffffffffffffffffffffffffff1681526020016001820160009054906101000a900473ffffffffffffffffffffffffffffffffffffffff1673ffffffffffffffffffffffffffffffffffffffff1673ffffffffffffffffffffffffffffffffffffffff168152602001600282015481526020016003820160009054906101000a900460ff161515151581526020016003820160019054906101000a900460ff1615151515815250508282815181106103d3576103d2611113565b5b602002602001018190525080806001019150506102ac565b508091505090565b6001600082815260200190815260200160002060030160009054906101000a900460ff1615610457576040517f08c379a000000000000000000000000000000000000000000000000000000000815260040161044e9061119f565b60405180910390fd5b6001600082815260200190815260200160002060030160019054906101000a900460ff16156104bb576040517f08c379a00000000000000000000000000000000000000000000000000000000081526004016104b29061120b565b60405180910390fd5b600180600083815260200190815260200160002060030160016101000a81548160ff02191690831515021790555060008054906101000a900473ffffffffffffffffffffffffffffffffffffffff1673ffffffffffffffffffffffffffffffffffffffff1663a9059cbb3360016000858152602001908152602001600020600201546040518363ffffffff1660e01b815260040161055a92919061122b565b6020604051808303816000875af1158015610579573d6000803e3d6000fd5b505050506040513d601f19601f8201168201806040525081019061059d9190611280565b507fc6eacc3aa5b2aa77b5a826b832a804ca0b71830ec74f9aa57a15edd978c31ed6816040516105cd919061105e565b60405180910390a150565b60016020528060005260406000206000915090508060000160009054906101000a900473ffffffffffffffffffffffffffffffffffffffff16908060010160009054906101000a900473ffffffffffffffffffffffffffffffffffffffff16908060020154908060030160009054906101000a900460ff16908060030160019054906101000a900460ff16905085565b6001600082815260200190815260200160002060010160009054906101000a900473ffffffffffffffffffffffffffffffffffffffff1673ffffffffffffffffffffffffffffffffffffffff163373ffffffffffffffffffffffffffffffffffffffff161461070c576040517f08c379a0000000000000000000000000000000000000000000000000000000008152600401610703906112f9565b60405180910390fd5b6001600082815260200190815260200160002060030160009054906101000a900460ff1615610770576040517f08c379a00000000000000000000000000000000000000000000000000000000081526004016107679061119f565b60405180910390fd5b6001600082815260200190815260200160002060030160019054906101000a900460ff16156107d4576040517f08c379a00000000000000000000000000000000000000000000000000000000081526004016107cb9061120b565b60405180910390fd5b600180600083815260200190815260200160002060030160006101000a81548160ff02191690831515021790555060008054906101000a900473ffffffffffffffffffffffffffffffffffffffff1673ffffffffffffffffffffffffffffffffffffffff1663a9059cbb6001600084815260200190815260200160002060000160009054906101000a900473ffffffffffffffffffffffffffffffffffffffff1660016000858152602001908152602001600020600201546040518363ffffffff1660e01b81526004016108a992919061122b565b6020604051808303816000875af11580156108c8573d6000803e3d6000fd5b505050506040513d601f19601f820116820180604052508101906108ec9190611280565b507fc1fa7142cfb933d0855114a3bffde296944c30b727f297c14d0db4d553d3a5c78160405161091c919061105e565b60405180910390a150565b8060008054906101000a900473ffffffffffffffffffffffffffffffffffffffff1673ffffffffffffffffffffffffffffffffffffffff1663dd62ed3e33306040518363ffffffff1660e01b8152600401610983929190611079565b602060405180830381865afa1580156109a0573d6000803e3d6000fd5b505050506040513d601f19601f820116820180604052508101906109c491906110b7565b1015610a05576040517f08c379a00000000000000000000000000000000000000000000000000000000081526004016109fc90611365565b60405180910390fd5b600060026000815480929190610a1a906113b4565b9190505590506040518060a001604052808473ffffffffffffffffffffffffffffffffffffffff1681526020013373ffffffffffffffffffffffffffffffffffffffff168152602001838152602001600015158152602001600015158152506001600083815260200190815260200160002060008201518160000160006101000a81548173ffffffffffffffffffffffffffffffffffffffff021916908373ffffffffffffffffffffffffffffffffffffffff16021790555060208201518160010160006101000a81548173ffffffffffffffffffffffffffffffffffffffff021916908373ffffffffffffffffffffffffffffffffffffffff1602179055506040820151816002015560608201518160030160006101000a81548160ff02191690831515021790555060808201518160030160016101000a81548160ff02191690831515021790555090505060008054906101000a900473ffffffffffffffffffffffffffffffffffffffff1673ffffffffffffffffffffffffffffffffffffffff166323b872dd3330856040518463ffffffff1660e01b8152600401610bc4939291906113fc565b6020604051808303816000875af1158015610be3573d6000803e3d6000fd5b505050506040513d601f19601f82011682018060405250810190610c079190611280565b507f6cf53aa7292e664152c2ea948c3b3c95d4b05c36daeb2626d0293473c4a4a153818484604051610c3b93929190611433565b60405180910390a1505050565b60008054906101000a900473ffffffffffffffffffffffffffffffffffffffff1681565b60025481565b6040518060a00160405280600073ffffffffffffffffffffffffffffffffffffffff168152602001600073ffffffffffffffffffffffffffffffffffffffff168152602001600081526020016000151581526020016000151581525090565b600080fd5b600073ffffffffffffffffffffffffffffffffffffffff82169050919050565b6000610d0182610cd6565b9050919050565b610d1181610cf6565b8114610d1c57600080fd5b50565b600081359050610d2e81610d08565b92915050565b6000819050919050565b610d4781610d34565b8114610d5257600080fd5b50565b600081359050610d6481610d3e565b92915050565b60008060408385031215610d8157610d80610cd1565b5b6000610d8f85828601610d1f565b9250506020610da085828601610d55565b9150509250929050565b60008115159050919050565b610dbf81610daa565b82525050565b6000602082019050610dda6000830184610db6565b92915050565b600081519050919050565b600082825260208201905092915050565b6000819050602082019050919050565b610e1581610cf6565b82525050565b610e2481610d34565b82525050565b610e3381610daa565b82525050565b60a082016000820151610e4f6000850182610e0c565b506020820151610e626020850182610e0c565b506040820151610e756040850182610e1b565b506060820151610e886060850182610e2a565b506080820151610e9b6080850182610e2a565b50505050565b6000610ead8383610e39565b60a08301905092915050565b6000602082019050919050565b6000610ed182610de0565b610edb8185610deb565b9350610ee683610dfc565b8060005b83811015610f17578151610efe8882610ea1565b9750610f0983610eb9565b925050600181019050610eea565b5085935050505092915050565b60006020820190508181036000830152610f3e8184610ec6565b905092915050565b600060208284031215610f5c57610f5b610cd1565b5b6000610f6a84828501610d55565b91505092915050565b610f7c81610cf6565b82525050565b610f8b81610d34565b82525050565b600060a082019050610fa66000830188610f73565b610fb36020830187610f73565b610fc06040830186610f82565b610fcd6060830185610db6565b610fda6080830184610db6565b9695505050505050565b6000819050919050565b6000611009611004610fff84610cd6565b610fe4565b610cd6565b9050919050565b600061101b82610fee565b9050919050565b600061102d82611010565b9050919050565b61103d81611022565b82525050565b60006020820190506110586000830184611034565b92915050565b60006020820190506110736000830184610f82565b92915050565b600060408201905061108e6000830185610f73565b61109b6020830184610f73565b9392505050565b6000815190506110b181610d3e565b92915050565b6000602082840312156110cd576110cc610cd1565b5b60006110db848285016110a2565b91505092915050565b7f4e487b7100000000000000000000000000000000000000000000000000000000600052604160045260246000fd5b7f4e487b7100000000000000000000000000000000000000000000000000000000600052603260045260246000fd5b600082825260208201905092915050565b7f5461736b20616c726561647920636f6d706c6574656400000000000000000000600082015250565b6000611189601683611142565b915061119482611153565b602082019050919050565b600060208201905081810360008301526111b88161117c565b9050919050565b7f5461736b20686173206265656e2063616e63656c6c6564000000000000000000600082015250565b60006111f5601783611142565b9150611200826111bf565b602082019050919050565b60006020820190508181036000830152611224816111e8565b9050919050565b60006040820190506112406000830185610f73565b61124d6020830184610f82565b9392505050565b61125d81610daa565b811461126857600080fd5b50565b60008151905061127a81611254565b92915050565b60006020828403121561129657611295610cd1565b5b60006112a48482850161126b565b91505092915050565b7f4e6f7420617574686f72697a656420746f20636f6d706c657465207461736b00600082015250565b60006112e3601f83611142565b91506112ee826112ad565b602082019050919050565b60006020820190508181036000830152611312816112d6565b9050919050565b7f496e73756666696369656e7420746f6b656e20616c6c6f77616e63652e000000600082015250565b600061134f601d83611142565b915061135a82611319565b602082019050919050565b6000602082019050818103600083015261137e81611342565b9050919050565b7f4e487b7100000000000000000000000000000000000000000000000000000000600052601160045260246000fd5b60006113bf82610d34565b91507fffffffffffffffffffffffffffffffffffffffffffffffffffffffffffffffff82036113f1576113f0611385565b5b600182019050919050565b60006060820190506114116000830186610f73565b61141e6020830185610f73565b61142b6040830184610f82565b949350505050565b60006060820190506114486000830186610f82565b6114556020830185610f73565b6114626040830184610f82565b94935050505056fea26469706673582212200fb9121ec529be5770f4fb5912327c94286b41d06305a25c0d8fb333ea72ca5864736f6c63430008170033",
  "linkReferences": {},
  "deployedLinkReferences": {}
}