{
  "_format": "hh-sol-artifact-1",
  "contractName": "TaskManager",
  "sourceName": "contracts/TaskManager.sol",
  "abi": [
    {
      "inputs": [
        {
          "internalType": "address",
          "name": "tokenAddress",
          "type": "address"
        },
        {
          "internalType": "address",
          "name": "priceFeedAddress",
          "type": "address"
        }
      ],
      "stateMutability": "nonpayable",
      "type": "constructor"
    },
    {
      "anonymous": false,
      "inputs": [
        {
          "indexed": false,
          "internalType": "uint256",
          "name": "taskId",
          "type": "uint256"
        }
      ],
      "name": "TaskCancelled",
      "type": "event"
    },
    {
      "anonymous": false,
      "inputs": [
        {
          "indexed": false,
          "internalType": "uint256",
          "name": "taskId",
          "type": "uint256"
        }
      ],
      "name": "TaskCompleted",
      "type": "event"
    },
    {
      "anonymous": false,
      "inputs": [
        {
          "indexed": false,
          "internalType": "uint256",
          "name": "taskId",
          "type": "uint256"
        },
        {
          "indexed": false,
          "internalType": "address",
          "name": "assignee",
          "type": "address"
        },
        {
          "indexed": false,
          "internalType": "uint256",
          "name": "reward",
          "type": "uint256"
        }
      ],
      "name": "TaskCreated",
      "type": "event"
    },
    {
      "inputs": [
        {
          "internalType": "uint256",
          "name": "taskId",
          "type": "uint256"
        }
      ],
      "name": "cancelTask",
      "outputs": [],
      "stateMutability": "nonpayable",
      "type": "function"
    },
    {
      "inputs": [
        {
          "internalType": "address",
          "name": "owner",
          "type": "address"
        },
        {
          "internalType": "uint256",
          "name": "rewardAmount",
          "type": "uint256"
        }
      ],
      "name": "checkAllowance",
      "outputs": [
        {
          "internalType": "bool",
          "name": "",
          "type": "bool"
        }
      ],
      "stateMutability": "view",
      "type": "function"
    },
    {
      "inputs": [
        {
          "internalType": "uint256",
          "name": "taskId",
          "type": "uint256"
        }
      ],
      "name": "completeTask",
      "outputs": [],
      "stateMutability": "nonpayable",
      "type": "function"
    },
    {
      "inputs": [
        {
          "internalType": "address",
          "name": "assignee",
          "type": "address"
        },
        {
          "internalType": "uint256",
          "name": "reward",
          "type": "uint256"
        }
      ],
      "name": "createTask",
      "outputs": [],
      "stateMutability": "nonpayable",
      "type": "function"
    },
    {
      "inputs": [],
      "name": "getAllTasks",
      "outputs": [
        {
          "components": [
            {
              "internalType": "address",
              "name": "assignee",
              "type": "address"
            },
            {
              "internalType": "address",
              "name": "creator",
              "type": "address"
            },
            {
              "internalType": "uint256",
              "name": "reward",
              "type": "uint256"
            },
            {
              "internalType": "bool",
              "name": "isCompleted",
              "type": "bool"
            },
            {
              "internalType": "bool",
              "name": "isCancelled",
              "type": "bool"
            }
          ],
          "internalType": "struct TaskManager.Task[]",
          "name": "",
          "type": "tuple[]"
        }
      ],
      "stateMutability": "view",
      "type": "function"
    },
    {
      "inputs": [],
      "name": "getLatestEthPrice",
      "outputs": [
        {
          "internalType": "int256",
          "name": "",
          "type": "int256"
        }
      ],
      "stateMutability": "view",
      "type": "function"
    },
    {
      "inputs": [],
      "name": "nextTaskId",
      "outputs": [
        {
          "internalType": "uint256",
          "name": "",
          "type": "uint256"
        }
      ],
      "stateMutability": "view",
      "type": "function"
    },
    {
      "inputs": [
        {
          "internalType": "uint256",
          "name": "",
          "type": "uint256"
        }
      ],
      "name": "tasks",
      "outputs": [
        {
          "internalType": "address",
          "name": "assignee",
          "type": "address"
        },
        {
          "internalType": "address",
          "name": "creator",
          "type": "address"
        },
        {
          "internalType": "uint256",
          "name": "reward",
          "type": "uint256"
        },
        {
          "internalType": "bool",
          "name": "isCompleted",
          "type": "bool"
        },
        {
          "internalType": "bool",
          "name": "isCancelled",
          "type": "bool"
        }
      ],
      "stateMutability": "view",
      "type": "function"
    },
    {
      "inputs": [],
      "name": "token",
      "outputs": [
        {
          "internalType": "contract IERC20",
          "name": "",
          "type": "address"
        }
      ],
      "stateMutability": "view",
      "type": "function"
    },
    {
      "inputs": [
        {
          "internalType": "uint256",
          "name": "usdAmount",
          "type": "uint256"
        }
      ],
      "name": "usdToEth",
      "outputs": [
        {
          "internalType": "uint256",
          "name": "",
          "type": "uint256"
        }
      ],
      "stateMutability": "view",
      "type": "function"
    }
  ],
  "bytecode": "0x60806040523480156200001157600080fd5b50604051620019ca380380620019ca83398181016040528101906200003791906200012a565b816000806101000a81548173ffffffffffffffffffffffffffffffffffffffff021916908373ffffffffffffffffffffffffffffffffffffffff16021790555080600160006101000a81548173ffffffffffffffffffffffffffffffffffffffff021916908373ffffffffffffffffffffffffffffffffffffffff160217905550505062000171565b600080fd5b600073ffffffffffffffffffffffffffffffffffffffff82169050919050565b6000620000f282620000c5565b9050919050565b6200010481620000e5565b81146200011057600080fd5b50565b6000815190506200012481620000f9565b92915050565b60008060408385031215620001445762000143620000c0565b5b6000620001548582860162000113565b9250506020620001678582860162000113565b9150509250929050565b61184980620001816000396000f3fe608060405234801561001057600080fd5b506004361061009e5760003560e01c8063bcecf66711610066578063bcecf6671461015f578063e1e295581461018f578063f50e99fc146101ab578063fc0c546a146101c7578063fdc3d8d7146101e55761009e565b806330c0b9ec146100a35780633daba0d7146100c1578063779900b4146100f15780637eec20a81461010f5780638d9776721461012b575b600080fd5b6100ab610203565b6040516100b89190610e68565b60405180910390f35b6100db60048036038101906100d69190610f1c565b6102a4565b6040516100e89190610f77565b60405180910390f35b6100f9610352565b60405161010691906110d6565b60405180910390f35b610129600480360381019061012491906110f8565b6104f8565b005b610145600480360381019061014091906110f8565b6106de565b604051610156959493929190611143565b60405180910390f35b610179600480360381019061017491906110f8565b61076e565b6040516101869190611196565b60405180910390f35b6101a960048036038101906101a491906110f8565b6107e5565b005b6101c560048036038101906101c09190610f1c565b610aa5565b005b6101cf610dc6565b6040516101dc9190611210565b60405180910390f35b6101ed610dea565b6040516101fa9190611196565b60405180910390f35b600080600160009054906101000a900473ffffffffffffffffffffffffffffffffffffffff1673ffffffffffffffffffffffffffffffffffffffff1663feaf968c6040518163ffffffff1660e01b815260040160a060405180830381865afa158015610273573d6000803e3d6000fd5b505050506040513d601f19601f8201168201806040525081019061029791906112ae565b5050509150508091505090565b60008060008054906101000a900473ffffffffffffffffffffffffffffffffffffffff1673ffffffffffffffffffffffffffffffffffffffff1663dd62ed3e85306040518363ffffffff1660e01b8152600401610302929190611329565b602060405180830381865afa15801561031f573d6000803e3d6000fd5b505050506040513d601f19601f820116820180604052508101906103439190611352565b90508281101591505092915050565b6060600060035467ffffffffffffffff8111156103725761037161137f565b5b6040519080825280602002602001820160405280156103ab57816020015b610398610df0565b8152602001906001900390816103905790505b50905060005b6003548110156104f057600260008281526020019081526020016000206040518060a00160405290816000820160009054906101000a900473ffffffffffffffffffffffffffffffffffffffff1673ffffffffffffffffffffffffffffffffffffffff1673ffffffffffffffffffffffffffffffffffffffff1681526020016001820160009054906101000a900473ffffffffffffffffffffffffffffffffffffffff1673ffffffffffffffffffffffffffffffffffffffff1673ffffffffffffffffffffffffffffffffffffffff168152602001600282015481526020016003820160009054906101000a900460ff161515151581526020016003820160019054906101000a900460ff1615151515815250508282815181106104d8576104d76113ae565b5b602002602001018190525080806001019150506103b1565b508091505090565b6002600082815260200190815260200160002060030160009054906101000a900460ff161561055c576040517f08c379a00000000000000000000000000000000000000000000000000000000081526004016105539061143a565b60405180910390fd5b6002600082815260200190815260200160002060030160019054906101000a900460ff16156105c0576040517f08c379a00000000000000000000000000000000000000000000000000000000081526004016105b7906114a6565b60405180910390fd5b60016002600083815260200190815260200160002060030160016101000a81548160ff02191690831515021790555060008054906101000a900473ffffffffffffffffffffffffffffffffffffffff1673ffffffffffffffffffffffffffffffffffffffff1663a9059cbb3360026000858152602001908152602001600020600201546040518363ffffffff1660e01b81526004016106609291906114c6565b6020604051808303816000875af115801561067f573d6000803e3d6000fd5b505050506040513d601f19601f820116820180604052508101906106a3919061151b565b507fc6eacc3aa5b2aa77b5a826b832a804ca0b71830ec74f9aa57a15edd978c31ed6816040516106d39190611196565b60405180910390a150565b60026020528060005260406000206000915090508060000160009054906101000a900473ffffffffffffffffffffffffffffffffffffffff16908060010160009054906101000a900473ffffffffffffffffffffffffffffffffffffffff16908060020154908060030160009054906101000a900460ff16908060030160019054906101000a900460ff16905085565b600080610779610203565b9050600081136107be576040517f08c379a00000000000000000000000000000000000000000000000000000000081526004016107b590611594565b60405180910390fd5b80670de0b6b3a7640000846107d391906115e3565b6107dd9190611654565b915050919050565b6002600082815260200190815260200160002060010160009054906101000a900473ffffffffffffffffffffffffffffffffffffffff1673ffffffffffffffffffffffffffffffffffffffff163373ffffffffffffffffffffffffffffffffffffffff1614610889576040517f08c379a0000000000000000000000000000000000000000000000000000000008152600401610880906116d1565b60405180910390fd5b6002600082815260200190815260200160002060030160009054906101000a900460ff16156108ed576040517f08c379a00000000000000000000000000000000000000000000000000000000081526004016108e49061143a565b60405180910390fd5b6002600082815260200190815260200160002060030160019054906101000a900460ff1615610951576040517f08c379a0000000000000000000000000000000000000000000000000000000008152600401610948906114a6565b60405180910390fd5b60016002600083815260200190815260200160002060030160006101000a81548160ff02191690831515021790555060008054906101000a900473ffffffffffffffffffffffffffffffffffffffff1673ffffffffffffffffffffffffffffffffffffffff1663a9059cbb6002600084815260200190815260200160002060000160009054906101000a900473ffffffffffffffffffffffffffffffffffffffff1660026000858152602001908152602001600020600201546040518363ffffffff1660e01b8152600401610a279291906114c6565b6020604051808303816000875af1158015610a46573d6000803e3d6000fd5b505050506040513d601f19601f82011682018060405250810190610a6a919061151b565b507fc1fa7142cfb933d0855114a3bffde296944c30b727f297c14d0db4d553d3a5c781604051610a9a9190611196565b60405180910390a150565b8060008054906101000a900473ffffffffffffffffffffffffffffffffffffffff1673ffffffffffffffffffffffffffffffffffffffff1663dd62ed3e33306040518363ffffffff1660e01b8152600401610b01929190611329565b602060405180830381865afa158015610b1e573d6000803e3d6000fd5b505050506040513d601f19601f82011682018060405250810190610b429190611352565b1015610b83576040517f08c379a0000000000000000000000000000000000000000000000000000000008152600401610b7a9061173d565b60405180910390fd5b600060036000815480929190610b989061175d565b9190505590506040518060a001604052808473ffffffffffffffffffffffffffffffffffffffff1681526020013373ffffffffffffffffffffffffffffffffffffffff168152602001838152602001600015158152602001600015158152506002600083815260200190815260200160002060008201518160000160006101000a81548173ffffffffffffffffffffffffffffffffffffffff021916908373ffffffffffffffffffffffffffffffffffffffff16021790555060208201518160010160006101000a81548173ffffffffffffffffffffffffffffffffffffffff021916908373ffffffffffffffffffffffffffffffffffffffff1602179055506040820151816002015560608201518160030160006101000a81548160ff02191690831515021790555060808201518160030160016101000a81548160ff02191690831515021790555090505060008054906101000a900473ffffffffffffffffffffffffffffffffffffffff1673ffffffffffffffffffffffffffffffffffffffff166323b872dd3330856040518463ffffffff1660e01b8152600401610d42939291906117a5565b6020604051808303816000875af1158015610d61573d6000803e3d6000fd5b505050506040513d601f19601f82011682018060405250810190610d85919061151b565b507f6cf53aa7292e664152c2ea948c3b3c95d4b05c36daeb2626d0293473c4a4a153818484604051610db9939291906117dc565b60405180910390a1505050565b60008054906101000a900473ffffffffffffffffffffffffffffffffffffffff1681565b60035481565b6040518060a00160405280600073ffffffffffffffffffffffffffffffffffffffff168152602001600073ffffffffffffffffffffffffffffffffffffffff168152602001600081526020016000151581526020016000151581525090565b6000819050919050565b610e6281610e4f565b82525050565b6000602082019050610e7d6000830184610e59565b92915050565b600080fd5b600073ffffffffffffffffffffffffffffffffffffffff82169050919050565b6000610eb382610e88565b9050919050565b610ec381610ea8565b8114610ece57600080fd5b50565b600081359050610ee081610eba565b92915050565b6000819050919050565b610ef981610ee6565b8114610f0457600080fd5b50565b600081359050610f1681610ef0565b92915050565b60008060408385031215610f3357610f32610e83565b5b6000610f4185828601610ed1565b9250506020610f5285828601610f07565b9150509250929050565b60008115159050919050565b610f7181610f5c565b82525050565b6000602082019050610f8c6000830184610f68565b92915050565b600081519050919050565b600082825260208201905092915050565b6000819050602082019050919050565b610fc781610ea8565b82525050565b610fd681610ee6565b82525050565b610fe581610f5c565b82525050565b60a0820160008201516110016000850182610fbe565b5060208201516110146020850182610fbe565b5060408201516110276040850182610fcd565b50606082015161103a6060850182610fdc565b50608082015161104d6080850182610fdc565b50505050565b600061105f8383610feb565b60a08301905092915050565b6000602082019050919050565b600061108382610f92565b61108d8185610f9d565b935061109883610fae565b8060005b838110156110c95781516110b08882611053565b97506110bb8361106b565b92505060018101905061109c565b5085935050505092915050565b600060208201905081810360008301526110f08184611078565b905092915050565b60006020828403121561110e5761110d610e83565b5b600061111c84828501610f07565b91505092915050565b61112e81610ea8565b82525050565b61113d81610ee6565b82525050565b600060a0820190506111586000830188611125565b6111656020830187611125565b6111726040830186611134565b61117f6060830185610f68565b61118c6080830184610f68565b9695505050505050565b60006020820190506111ab6000830184611134565b92915050565b6000819050919050565b60006111d66111d16111cc84610e88565b6111b1565b610e88565b9050919050565b60006111e8826111bb565b9050919050565b60006111fa826111dd565b9050919050565b61120a816111ef565b82525050565b60006020820190506112256000830184611201565b92915050565b600069ffffffffffffffffffff82169050919050565b61124a8161122b565b811461125557600080fd5b50565b60008151905061126781611241565b92915050565b61127681610e4f565b811461128157600080fd5b50565b6000815190506112938161126d565b92915050565b6000815190506112a881610ef0565b92915050565b600080600080600060a086880312156112ca576112c9610e83565b5b60006112d888828901611258565b95505060206112e988828901611284565b94505060406112fa88828901611299565b935050606061130b88828901611299565b925050608061131c88828901611258565b9150509295509295909350565b600060408201905061133e6000830185611125565b61134b6020830184611125565b9392505050565b60006020828403121561136857611367610e83565b5b600061137684828501611299565b91505092915050565b7f4e487b7100000000000000000000000000000000000000000000000000000000600052604160045260246000fd5b7f4e487b7100000000000000000000000000000000000000000000000000000000600052603260045260246000fd5b600082825260208201905092915050565b7f5461736b20616c726561647920636f6d706c6574656400000000000000000000600082015250565b60006114246016836113dd565b915061142f826113ee565b602082019050919050565b6000602082019050818103600083015261145381611417565b9050919050565b7f5461736b20686173206265656e2063616e63656c6c6564000000000000000000600082015250565b60006114906017836113dd565b915061149b8261145a565b602082019050919050565b600060208201905081810360008301526114bf81611483565b9050919050565b60006040820190506114db6000830185611125565b6114e86020830184611134565b9392505050565b6114f881610f5c565b811461150357600080fd5b50565b600081519050611515816114ef565b92915050565b60006020828403121561153157611530610e83565b5b600061153f84828501611506565b91505092915050565b7f496e76616c696420455448207072696365000000000000000000000000000000600082015250565b600061157e6011836113dd565b915061158982611548565b602082019050919050565b600060208201905081810360008301526115ad81611571565b9050919050565b7f4e487b7100000000000000000000000000000000000000000000000000000000600052601160045260246000fd5b60006115ee82610ee6565b91506115f983610ee6565b925082820261160781610ee6565b9150828204841483151761161e5761161d6115b4565b5b5092915050565b7f4e487b7100000000000000000000000000000000000000000000000000000000600052601260045260246000fd5b600061165f82610ee6565b915061166a83610ee6565b92508261167a57611679611625565b5b828204905092915050565b7f4e6f7420617574686f72697a656420746f20636f6d706c657465207461736b00600082015250565b60006116bb601f836113dd565b91506116c682611685565b602082019050919050565b600060208201905081810360008301526116ea816116ae565b9050919050565b7f496e73756666696369656e7420746f6b656e20616c6c6f77616e63652e000000600082015250565b6000611727601d836113dd565b9150611732826116f1565b602082019050919050565b600060208201905081810360008301526117568161171a565b9050919050565b600061176882610ee6565b91507fffffffffffffffffffffffffffffffffffffffffffffffffffffffffffffffff820361179a576117996115b4565b5b600182019050919050565b60006060820190506117ba6000830186611125565b6117c76020830185611125565b6117d46040830184611134565b949350505050565b60006060820190506117f16000830186611134565b6117fe6020830185611125565b61180b6040830184611134565b94935050505056fea2646970667358221220a5bd2098aefba59cee0a2ce773d3d463b89717e9e10baf1936ae2e7539eccdfb64736f6c63430008170033",
  "linkReferences": {},
  "deployedLinkReferences": {}
}