{
  "_format": "hh-sol-artifact-1",
  "contractName": "TaskManager",
  "sourceName": "contracts/TaskManager.sol",
  "abi": [
    {
      "inputs": [
        {
          "internalType": "address",
          "name": "tokenAddress",
          "type": "address"
        }
      ],
      "stateMutability": "nonpayable",
      "type": "constructor"
    },
    {
      "anonymous": false,
      "inputs": [
        {
          "indexed": false,
          "internalType": "uint256",
          "name": "taskId",
          "type": "uint256"
        }
      ],
      "name": "TaskCancelled",
      "type": "event"
    },
    {
      "anonymous": false,
      "inputs": [
        {
          "indexed": false,
          "internalType": "uint256",
          "name": "taskId",
          "type": "uint256"
        }
      ],
      "name": "TaskCompleted",
      "type": "event"
    },
    {
      "anonymous": false,
      "inputs": [
        {
          "indexed": false,
          "internalType": "uint256",
          "name": "taskId",
          "type": "uint256"
        },
        {
          "indexed": false,
          "internalType": "address",
          "name": "assignee",
          "type": "address"
        },
        {
          "indexed": false,
          "internalType": "uint256",
          "name": "reward",
          "type": "uint256"
        }
      ],
      "name": "TaskCreated",
      "type": "event"
    },
    {
      "inputs": [
        {
          "internalType": "uint256",
          "name": "taskId",
          "type": "uint256"
        }
      ],
      "name": "cancelTask",
      "outputs": [],
      "stateMutability": "nonpayable",
      "type": "function"
    },
    {
      "inputs": [
        {
          "internalType": "uint256",
          "name": "taskId",
          "type": "uint256"
        }
      ],
      "name": "completeTask",
      "outputs": [],
      "stateMutability": "nonpayable",
      "type": "function"
    },
    {
      "inputs": [
        {
          "internalType": "address",
          "name": "assignee",
          "type": "address"
        },
        {
          "internalType": "uint256",
          "name": "reward",
          "type": "uint256"
        }
      ],
      "name": "createTask",
      "outputs": [],
      "stateMutability": "nonpayable",
      "type": "function"
    },
    {
      "inputs": [],
      "name": "nextTaskId",
      "outputs": [
        {
          "internalType": "uint256",
          "name": "",
          "type": "uint256"
        }
      ],
      "stateMutability": "view",
      "type": "function"
    },
    {
      "inputs": [
        {
          "internalType": "uint256",
          "name": "",
          "type": "uint256"
        }
      ],
      "name": "tasks",
      "outputs": [
        {
          "internalType": "address",
          "name": "assignee",
          "type": "address"
        },
        {
          "internalType": "address",
          "name": "creator",
          "type": "address"
        },
        {
          "internalType": "uint256",
          "name": "reward",
          "type": "uint256"
        },
        {
          "internalType": "bool",
          "name": "isCompleted",
          "type": "bool"
        },
        {
          "internalType": "bool",
          "name": "isCancelled",
          "type": "bool"
        }
      ],
      "stateMutability": "view",
      "type": "function"
    },
    {
      "inputs": [],
      "name": "token",
      "outputs": [
        {
          "internalType": "contract IERC20",
          "name": "",
          "type": "address"
        }
      ],
      "stateMutability": "view",
      "type": "function"
    }
  ],
  "bytecode": "0x608060405234801561001057600080fd5b50604051610efc380380610efc833981810160405281019061003291906100db565b806000806101000a81548173ffffffffffffffffffffffffffffffffffffffff021916908373ffffffffffffffffffffffffffffffffffffffff16021790555050610108565b600080fd5b600073ffffffffffffffffffffffffffffffffffffffff82169050919050565b60006100a88261007d565b9050919050565b6100b88161009d565b81146100c357600080fd5b50565b6000815190506100d5816100af565b92915050565b6000602082840312156100f1576100f0610078565b5b60006100ff848285016100c6565b91505092915050565b610de5806101176000396000f3fe608060405234801561001057600080fd5b50600436106100625760003560e01c80637eec20a8146100675780638d97767214610083578063e1e29558146100b7578063f50e99fc146100d3578063fc0c546a146100ef578063fdc3d8d71461010d575b600080fd5b610081600480360381019061007c9190610907565b61012b565b005b61009d60048036038101906100989190610907565b610310565b6040516100ae95949392919061099f565b60405180910390f35b6100d160048036038101906100cc9190610907565b6103a0565b005b6100ed60048036038101906100e89190610a1e565b61065f565b005b6100f76108a2565b6040516101049190610abd565b60405180910390f35b6101156108c6565b6040516101229190610ad8565b60405180910390f35b6001600082815260200190815260200160002060030160009054906101000a900460ff161561018f576040517f08c379a000000000000000000000000000000000000000000000000000000000815260040161018690610b50565b60405180910390fd5b6001600082815260200190815260200160002060030160019054906101000a900460ff16156101f3576040517f08c379a00000000000000000000000000000000000000000000000000000000081526004016101ea90610bbc565b60405180910390fd5b600180600083815260200190815260200160002060030160016101000a81548160ff02191690831515021790555060008054906101000a900473ffffffffffffffffffffffffffffffffffffffff1673ffffffffffffffffffffffffffffffffffffffff1663a9059cbb3360016000858152602001908152602001600020600201546040518363ffffffff1660e01b8152600401610292929190610bdc565b6020604051808303816000875af11580156102b1573d6000803e3d6000fd5b505050506040513d601f19601f820116820180604052508101906102d59190610c31565b507fc6eacc3aa5b2aa77b5a826b832a804ca0b71830ec74f9aa57a15edd978c31ed6816040516103059190610ad8565b60405180910390a150565b60016020528060005260406000206000915090508060000160009054906101000a900473ffffffffffffffffffffffffffffffffffffffff16908060010160009054906101000a900473ffffffffffffffffffffffffffffffffffffffff16908060020154908060030160009054906101000a900460ff16908060030160019054906101000a900460ff16905085565b6001600082815260200190815260200160002060010160009054906101000a900473ffffffffffffffffffffffffffffffffffffffff1673ffffffffffffffffffffffffffffffffffffffff163373ffffffffffffffffffffffffffffffffffffffff1614610444576040517f08c379a000000000000000000000000000000000000000000000000000000000815260040161043b90610caa565b60405180910390fd5b6001600082815260200190815260200160002060030160009054906101000a900460ff16156104a8576040517f08c379a000000000000000000000000000000000000000000000000000000000815260040161049f90610b50565b60405180910390fd5b6001600082815260200190815260200160002060030160019054906101000a900460ff161561050c576040517f08c379a000000000000000000000000000000000000000000000000000000000815260040161050390610bbc565b60405180910390fd5b600180600083815260200190815260200160002060030160006101000a81548160ff02191690831515021790555060008054906101000a900473ffffffffffffffffffffffffffffffffffffffff1673ffffffffffffffffffffffffffffffffffffffff1663a9059cbb6001600084815260200190815260200160002060000160009054906101000a900473ffffffffffffffffffffffffffffffffffffffff1660016000858152602001908152602001600020600201546040518363ffffffff1660e01b81526004016105e1929190610bdc565b6020604051808303816000875af1158015610600573d6000803e3d6000fd5b505050506040513d601f19601f820116820180604052508101906106249190610c31565b507fc1fa7142cfb933d0855114a3bffde296944c30b727f297c14d0db4d553d3a5c7816040516106549190610ad8565b60405180910390a150565b60006002600081548092919061067490610cf9565b9190505590506040518060a001604052808473ffffffffffffffffffffffffffffffffffffffff1681526020013373ffffffffffffffffffffffffffffffffffffffff168152602001838152602001600015158152602001600015158152506001600083815260200190815260200160002060008201518160000160006101000a81548173ffffffffffffffffffffffffffffffffffffffff021916908373ffffffffffffffffffffffffffffffffffffffff16021790555060208201518160010160006101000a81548173ffffffffffffffffffffffffffffffffffffffff021916908373ffffffffffffffffffffffffffffffffffffffff1602179055506040820151816002015560608201518160030160006101000a81548160ff02191690831515021790555060808201518160030160016101000a81548160ff02191690831515021790555090505060008054906101000a900473ffffffffffffffffffffffffffffffffffffffff1673ffffffffffffffffffffffffffffffffffffffff166323b872dd3330856040518463ffffffff1660e01b815260040161081e93929190610d41565b6020604051808303816000875af115801561083d573d6000803e3d6000fd5b505050506040513d601f19601f820116820180604052508101906108619190610c31565b507f6cf53aa7292e664152c2ea948c3b3c95d4b05c36daeb2626d0293473c4a4a15381848460405161089593929190610d78565b60405180910390a1505050565b60008054906101000a900473ffffffffffffffffffffffffffffffffffffffff1681565b60025481565b600080fd5b6000819050919050565b6108e4816108d1565b81146108ef57600080fd5b50565b600081359050610901816108db565b92915050565b60006020828403121561091d5761091c6108cc565b5b600061092b848285016108f2565b91505092915050565b600073ffffffffffffffffffffffffffffffffffffffff82169050919050565b600061095f82610934565b9050919050565b61096f81610954565b82525050565b61097e816108d1565b82525050565b60008115159050919050565b61099981610984565b82525050565b600060a0820190506109b46000830188610966565b6109c16020830187610966565b6109ce6040830186610975565b6109db6060830185610990565b6109e86080830184610990565b9695505050505050565b6109fb81610954565b8114610a0657600080fd5b50565b600081359050610a18816109f2565b92915050565b60008060408385031215610a3557610a346108cc565b5b6000610a4385828601610a09565b9250506020610a54858286016108f2565b9150509250929050565b6000819050919050565b6000610a83610a7e610a7984610934565b610a5e565b610934565b9050919050565b6000610a9582610a68565b9050919050565b6000610aa782610a8a565b9050919050565b610ab781610a9c565b82525050565b6000602082019050610ad26000830184610aae565b92915050565b6000602082019050610aed6000830184610975565b92915050565b600082825260208201905092915050565b7f5461736b20616c726561647920636f6d706c6574656400000000000000000000600082015250565b6000610b3a601683610af3565b9150610b4582610b04565b602082019050919050565b60006020820190508181036000830152610b6981610b2d565b9050919050565b7f5461736b20686173206265656e2063616e63656c6c6564000000000000000000600082015250565b6000610ba6601783610af3565b9150610bb182610b70565b602082019050919050565b60006020820190508181036000830152610bd581610b99565b9050919050565b6000604082019050610bf16000830185610966565b610bfe6020830184610975565b9392505050565b610c0e81610984565b8114610c1957600080fd5b50565b600081519050610c2b81610c05565b92915050565b600060208284031215610c4757610c466108cc565b5b6000610c5584828501610c1c565b91505092915050565b7f4e6f7420617574686f72697a656420746f20636f6d706c657465207461736b00600082015250565b6000610c94601f83610af3565b9150610c9f82610c5e565b602082019050919050565b60006020820190508181036000830152610cc381610c87565b9050919050565b7f4e487b7100000000000000000000000000000000000000000000000000000000600052601160045260246000fd5b6000610d04826108d1565b91507fffffffffffffffffffffffffffffffffffffffffffffffffffffffffffffffff8203610d3657610d35610cca565b5b600182019050919050565b6000606082019050610d566000830186610966565b610d636020830185610966565b610d706040830184610975565b949350505050565b6000606082019050610d8d6000830186610975565b610d9a6020830185610966565b610da76040830184610975565b94935050505056fea2646970667358221220d89be99da5780de75664385ef2f1e1ec0a9fd3053fcc6f06138e54cdb95977b164736f6c63430008170033",
  "linkReferences": {},
  "deployedLinkReferences": {}
}