{"contracts/TaskManager.sol":{"TaskManager":{"abi":[{"inputs":[{"internalType":"address","name":"tokenAddress","type":"address"}],"stateMutability":"nonpayable","type":"constructor"},{"anonymous":false,"inputs":[{"indexed":false,"internalType":"uint256","name":"taskId","type":"uint256"}],"name":"TaskCancelled","type":"event"},{"anonymous":false,"inputs":[{"indexed":false,"internalType":"uint256","name":"taskId","type":"uint256"}],"name":"TaskCompleted","type":"event"},{"anonymous":false,"inputs":[{"indexed":false,"internalType":"uint256","name":"taskId","type":"uint256"},{"indexed":false,"internalType":"address","name":"assignee","type":"address"},{"indexed":false,"internalType":"uint256","name":"reward","type":"uint256"}],"name":"TaskCreated","type":"event"},{"inputs":[{"internalType":"uint256","name":"taskId","type":"uint256"}],"name":"cancelTask","outputs":[],"stateMutability":"nonpayable","type":"function"},{"inputs":[{"internalType":"uint256","name":"taskId","type":"uint256"}],"name":"completeTask","outputs":[],"stateMutability":"nonpayable","type":"function"},{"inputs":[{"internalType":"address","name":"assignee","type":"address"},{"internalType":"uint256","name":"reward","type":"uint256"}],"name":"createTask","outputs":[],"stateMutability":"nonpayable","type":"function"},{"inputs":[],"name":"nextTaskId","outputs":[{"internalType":"uint256","name":"","type":"uint256"}],"stateMutability":"view","type":"function"},{"inputs":[{"internalType":"uint256","name":"","type":"uint256"}],"name":"tasks","outputs":[{"internalType":"address","name":"assignee","type":"address"},{"internalType":"address","name":"creator","type":"address"},{"internalType":"uint256","name":"reward","type":"uint256"},{"internalType":"bool","name":"isCompleted","type":"bool"},{"internalType":"bool","name":"isCancelled","type":"bool"}],"stateMutability":"view","type":"function"},{"inputs":[],"name":"token","outputs":[{"internalType":"contract IERC20","name":"","type":"address"}],"stateMutability":"view","type":"function"}],"evm":{"bytecode":{"linkReferences":{},"object":"608060405234801561001057600080fd5b50604051610efc380380610efc833981810160405281019061003291906100db565b806000806101000a81548173ffffffffffffffffffffffffffffffffffffffff021916908373ffffffffffffffffffffffffffffffffffffffff16021790555050610108565b600080fd5b600073ffffffffffffffffffffffffffffffffffffffff82169050919050565b60006100a88261007d565b9050919050565b6100b88161009d565b81146100c357600080fd5b50565b6000815190506100d5816100af565b92915050565b6000602082840312156100f1576100f0610078565b5b60006100ff848285016100c6565b91505092915050565b610de5806101176000396000f3fe608060405234801561001057600080fd5b50600436106100625760003560e01c80637eec20a8146100675780638d97767214610083578063e1e29558146100b7578063f50e99fc146100d3578063fc0c546a146100ef578063fdc3d8d71461010d575b600080fd5b610081600480360381019061007c9190610907565b61012b565b005b61009d60048036038101906100989190610907565b610310565b6040516100ae95949392919061099f565b60405180910390f35b6100d160048036038101906100cc9190610907565b6103a0565b005b6100ed60048036038101906100e89190610a1e565b61065f565b005b6100f76108a2565b6040516101049190610abd565b60405180910390f35b6101156108c6565b6040516101229190610ad8565b60405180910390f35b6001600082815260200190815260200160002060030160009054906101000a900460ff161561018f576040517f08c379a000000000000000000000000000000000000000000000000000000000815260040161018690610b50565b60405180910390fd5b6001600082815260200190815260200160002060030160019054906101000a900460ff16156101f3576040517f08c379a00000000000000000000000000000000000000000000000000000000081526004016101ea90610bbc565b60405180910390fd5b600180600083815260200190815260200160002060030160016101000a81548160ff02191690831515021790555060008054906101000a900473ffffffffffffffffffffffffffffffffffffffff1673ffffffffffffffffffffffffffffffffffffffff1663a9059cbb3360016000858152602001908152602001600020600201546040518363ffffffff1660e01b8152600401610292929190610bdc565b6020604051808303816000875af11580156102b1573d6000803e3d6000fd5b505050506040513d601f19601f820116820180604052508101906102d59190610c31565b507fc6eacc3aa5b2aa77b5a826b832a804ca0b71830ec74f9aa57a15edd978c31ed6816040516103059190610ad8565b60405180910390a150565b60016020528060005260406000206000915090508060000160009054906101000a900473ffffffffffffffffffffffffffffffffffffffff16908060010160009054906101000a900473ffffffffffffffffffffffffffffffffffffffff16908060020154908060030160009054906101000a900460ff16908060030160019054906101000a900460ff16905085565b6001600082815260200190815260200160002060010160009054906101000a900473ffffffffffffffffffffffffffffffffffffffff1673ffffffffffffffffffffffffffffffffffffffff163373ffffffffffffffffffffffffffffffffffffffff1614610444576040517f08c379a000000000000000000000000000000000000000000000000000000000815260040161043b90610caa565b60405180910390fd5b6001600082815260200190815260200160002060030160009054906101000a900460ff16156104a8576040517f08c379a000000000000000000000000000000000000000000000000000000000815260040161049f90610b50565b60405180910390fd5b6001600082815260200190815260200160002060030160019054906101000a900460ff161561050c576040517f08c379a000000000000000000000000000000000000000000000000000000000815260040161050390610bbc565b60405180910390fd5b600180600083815260200190815260200160002060030160006101000a81548160ff02191690831515021790555060008054906101000a900473ffffffffffffffffffffffffffffffffffffffff1673ffffffffffffffffffffffffffffffffffffffff1663a9059cbb6001600084815260200190815260200160002060000160009054906101000a900473ffffffffffffffffffffffffffffffffffffffff1660016000858152602001908152602001600020600201546040518363ffffffff1660e01b81526004016105e1929190610bdc565b6020604051808303816000875af1158015610600573d6000803e3d6000fd5b505050506040513d601f19601f820116820180604052508101906106249190610c31565b507fc1fa7142cfb933d0855114a3bffde296944c30b727f297c14d0db4d553d3a5c7816040516106549190610ad8565b60405180910390a150565b60006002600081548092919061067490610cf9565b9190505590506040518060a001604052808473ffffffffffffffffffffffffffffffffffffffff1681526020013373ffffffffffffffffffffffffffffffffffffffff168152602001838152602001600015158152602001600015158152506001600083815260200190815260200160002060008201518160000160006101000a81548173ffffffffffffffffffffffffffffffffffffffff021916908373ffffffffffffffffffffffffffffffffffffffff16021790555060208201518160010160006101000a81548173ffffffffffffffffffffffffffffffffffffffff021916908373ffffffffffffffffffffffffffffffffffffffff1602179055506040820151816002015560608201518160030160006101000a81548160ff02191690831515021790555060808201518160030160016101000a81548160ff02191690831515021790555090505060008054906101000a900473ffffffffffffffffffffffffffffffffffffffff1673ffffffffffffffffffffffffffffffffffffffff166323b872dd3330856040518463ffffffff1660e01b815260040161081e93929190610d41565b6020604051808303816000875af115801561083d573d6000803e3d6000fd5b505050506040513d601f19601f820116820180604052508101906108619190610c31565b507f6cf53aa7292e664152c2ea948c3b3c95d4b05c36daeb2626d0293473c4a4a15381848460405161089593929190610d78565b60405180910390a1505050565b60008054906101000a900473ffffffffffffffffffffffffffffffffffffffff1681565b60025481565b600080fd5b6000819050919050565b6108e4816108d1565b81146108ef57600080fd5b50565b600081359050610901816108db565b92915050565b60006020828403121561091d5761091c6108cc565b5b600061092b848285016108f2565b91505092915050565b600073ffffffffffffffffffffffffffffffffffffffff82169050919050565b600061095f82610934565b9050919050565b61096f81610954565b82525050565b61097e816108d1565b82525050565b60008115159050919050565b61099981610984565b82525050565b600060a0820190506109b46000830188610966565b6109c16020830187610966565b6109ce6040830186610975565b6109db6060830185610990565b6109e86080830184610990565b9695505050505050565b6109fb81610954565b8114610a0657600080fd5b50565b600081359050610a18816109f2565b92915050565b60008060408385031215610a3557610a346108cc565b5b6000610a4385828601610a09565b9250506020610a54858286016108f2565b9150509250929050565b6000819050919050565b6000610a83610a7e610a7984610934565b610a5e565b610934565b9050919050565b6000610a9582610a68565b9050919050565b6000610aa782610a8a565b9050919050565b610ab781610a9c565b82525050565b6000602082019050610ad26000830184610aae565b92915050565b6000602082019050610aed6000830184610975565b92915050565b600082825260208201905092915050565b7f5461736b20616c726561647920636f6d706c6574656400000000000000000000600082015250565b6000610b3a601683610af3565b9150610b4582610b04565b602082019050919050565b60006020820190508181036000830152610b6981610b2d565b9050919050565b7f5461736b20686173206265656e2063616e63656c6c6564000000000000000000600082015250565b6000610ba6601783610af3565b9150610bb182610b70565b602082019050919050565b60006020820190508181036000830152610bd581610b99565b9050919050565b6000604082019050610bf16000830185610966565b610bfe6020830184610975565b9392505050565b610c0e81610984565b8114610c1957600080fd5b50565b600081519050610c2b81610c05565b92915050565b600060208284031215610c4757610c466108cc565b5b6000610c5584828501610c1c565b91505092915050565b7f4e6f7420617574686f72697a656420746f20636f6d706c657465207461736b00600082015250565b6000610c94601f83610af3565b9150610c9f82610c5e565b602082019050919050565b60006020820190508181036000830152610cc381610c87565b9050919050565b7f4e487b7100000000000000000000000000000000000000000000000000000000600052601160045260246000fd5b6000610d04826108d1565b91507fffffffffffffffffffffffffffffffffffffffffffffffffffffffffffffffff8203610d3657610d35610cca565b5b600182019050919050565b6000606082019050610d566000830186610966565b610d636020830185610966565b610d706040830184610975565b949350505050565b6000606082019050610d8d6000830186610975565b610d9a6020830185610966565b610da76040830184610975565b94935050505056fea2646970667358221220d89be99da5780de75664385ef2f1e1ec0a9fd3053fcc6f06138e54cdb95977b164736f6c63430008170033","opcodes":"PUSH1 0x80 PUSH1 0x40 MSTORE CALLVALUE DUP1 ISZERO PUSH2 0x10 JUMPI PUSH1 0x0 DUP1 REVERT JUMPDEST POP PUSH1 0x40 MLOAD PUSH2 0xEFC CODESIZE SUB DUP1 PUSH2 0xEFC DUP4 CODECOPY DUP2 DUP2 ADD PUSH1 0x40 MSTORE DUP2 ADD SWAP1 PUSH2 0x32 SWAP2 SWAP1 PUSH2 0xDB JUMP JUMPDEST DUP1 PUSH1 0x0 DUP1 PUSH2 0x100 EXP DUP2 SLOAD DUP2 PUSH20 0xFFFFFFFFFFFFFFFFFFFFFFFFFFFFFFFFFFFFFFFF MUL NOT AND SWAP1 DUP4 PUSH20 0xFFFFFFFFFFFFFFFFFFFFFFFFFFFFFFFFFFFFFFFF AND MUL OR SWAP1 SSTORE POP POP PUSH2 0x108 JUMP JUMPDEST PUSH1 0x0 DUP1 REVERT JUMPDEST PUSH1 0x0 PUSH20 0xFFFFFFFFFFFFFFFFFFFFFFFFFFFFFFFFFFFFFFFF DUP3 AND SWAP1 POP SWAP2 SWAP1 POP JUMP JUMPDEST PUSH1 0x0 PUSH2 0xA8 DUP3 PUSH2 0x7D JUMP JUMPDEST SWAP1 POP SWAP2 SWAP1 POP JUMP JUMPDEST PUSH2 0xB8 DUP2 PUSH2 0x9D JUMP JUMPDEST DUP2 EQ PUSH2 0xC3 JUMPI PUSH1 0x0 DUP1 REVERT JUMPDEST POP JUMP JUMPDEST PUSH1 0x0 DUP2 MLOAD SWAP1 POP PUSH2 0xD5 DUP2 PUSH2 0xAF JUMP JUMPDEST SWAP3 SWAP2 POP POP JUMP JUMPDEST PUSH1 0x0 PUSH1 0x20 DUP3 DUP5 SUB SLT ISZERO PUSH2 0xF1 JUMPI PUSH2 0xF0 PUSH2 0x78 JUMP JUMPDEST JUMPDEST PUSH1 0x0 PUSH2 0xFF DUP5 DUP3 DUP6 ADD PUSH2 0xC6 JUMP JUMPDEST SWAP2 POP POP SWAP3 SWAP2 POP POP JUMP JUMPDEST PUSH2 0xDE5 DUP1 PUSH2 0x117 PUSH1 0x0 CODECOPY PUSH1 0x0 RETURN INVALID PUSH1 0x80 PUSH1 0x40 MSTORE CALLVALUE DUP1 ISZERO PUSH2 0x10 JUMPI PUSH1 0x0 DUP1 REVERT JUMPDEST POP PUSH1 0x4 CALLDATASIZE LT PUSH2 0x62 JUMPI PUSH1 0x0 CALLDATALOAD PUSH1 0xE0 SHR DUP1 PUSH4 0x7EEC20A8 EQ PUSH2 0x67 JUMPI DUP1 PUSH4 0x8D977672 EQ PUSH2 0x83 JUMPI DUP1 PUSH4 0xE1E29558 EQ PUSH2 0xB7 JUMPI DUP1 PUSH4 0xF50E99FC EQ PUSH2 0xD3 JUMPI DUP1 PUSH4 0xFC0C546A EQ PUSH2 0xEF JUMPI DUP1 PUSH4 0xFDC3D8D7 EQ PUSH2 0x10D JUMPI JUMPDEST PUSH1 0x0 DUP1 REVERT JUMPDEST PUSH2 0x81 PUSH1 0x4 DUP1 CALLDATASIZE SUB DUP2 ADD SWAP1 PUSH2 0x7C SWAP2 SWAP1 PUSH2 0x907 JUMP JUMPDEST PUSH2 0x12B JUMP JUMPDEST STOP JUMPDEST PUSH2 0x9D PUSH1 0x4 DUP1 CALLDATASIZE SUB DUP2 ADD SWAP1 PUSH2 0x98 SWAP2 SWAP1 PUSH2 0x907 JUMP JUMPDEST PUSH2 0x310 JUMP JUMPDEST PUSH1 0x40 MLOAD PUSH2 0xAE SWAP6 SWAP5 SWAP4 SWAP3 SWAP2 SWAP1 PUSH2 0x99F JUMP JUMPDEST PUSH1 0x40 MLOAD DUP1 SWAP2 SUB SWAP1 RETURN JUMPDEST PUSH2 0xD1 PUSH1 0x4 DUP1 CALLDATASIZE SUB DUP2 ADD SWAP1 PUSH2 0xCC SWAP2 SWAP1 PUSH2 0x907 JUMP JUMPDEST PUSH2 0x3A0 JUMP JUMPDEST STOP JUMPDEST PUSH2 0xED PUSH1 0x4 DUP1 CALLDATASIZE SUB DUP2 ADD SWAP1 PUSH2 0xE8 SWAP2 SWAP1 PUSH2 0xA1E JUMP JUMPDEST PUSH2 0x65F JUMP JUMPDEST STOP JUMPDEST PUSH2 0xF7 PUSH2 0x8A2 JUMP JUMPDEST PUSH1 0x40 MLOAD PUSH2 0x104 SWAP2 SWAP1 PUSH2 0xABD JUMP JUMPDEST PUSH1 0x40 MLOAD DUP1 SWAP2 SUB SWAP1 RETURN JUMPDEST PUSH2 0x115 PUSH2 0x8C6 JUMP JUMPDEST PUSH1 0x40 MLOAD PUSH2 0x122 SWAP2 SWAP1 PUSH2 0xAD8 JUMP JUMPDEST PUSH1 0x40 MLOAD DUP1 SWAP2 SUB SWAP1 RETURN JUMPDEST PUSH1 0x1 PUSH1 0x0 DUP3 DUP2 MSTORE PUSH1 0x20 ADD SWAP1 DUP2 MSTORE PUSH1 0x20 ADD PUSH1 0x0 KECCAK256 PUSH1 0x3 ADD PUSH1 0x0 SWAP1 SLOAD SWAP1 PUSH2 0x100 EXP SWAP1 DIV PUSH1 0xFF AND ISZERO PUSH2 0x18F JUMPI PUSH1 0x40 MLOAD PUSH32 0x8C379A000000000000000000000000000000000000000000000000000000000 DUP2 MSTORE PUSH1 0x4 ADD PUSH2 0x186 SWAP1 PUSH2 0xB50 JUMP JUMPDEST PUSH1 0x40 MLOAD DUP1 SWAP2 SUB SWAP1 REVERT JUMPDEST PUSH1 0x1 PUSH1 0x0 DUP3 DUP2 MSTORE PUSH1 0x20 ADD SWAP1 DUP2 MSTORE PUSH1 0x20 ADD PUSH1 0x0 KECCAK256 PUSH1 0x3 ADD PUSH1 0x1 SWAP1 SLOAD SWAP1 PUSH2 0x100 EXP SWAP1 DIV PUSH1 0xFF AND ISZERO PUSH2 0x1F3 JUMPI PUSH1 0x40 MLOAD PUSH32 0x8C379A000000000000000000000000000000000000000000000000000000000 DUP2 MSTORE PUSH1 0x4 ADD PUSH2 0x1EA SWAP1 PUSH2 0xBBC JUMP JUMPDEST PUSH1 0x40 MLOAD DUP1 SWAP2 SUB SWAP1 REVERT JUMPDEST PUSH1 0x1 DUP1 PUSH1 0x0 DUP4 DUP2 MSTORE PUSH1 0x20 ADD SWAP1 DUP2 MSTORE PUSH1 0x20 ADD PUSH1 0x0 KECCAK256 PUSH1 0x3 ADD PUSH1 0x1 PUSH2 0x100 EXP DUP2 SLOAD DUP2 PUSH1 0xFF MUL NOT AND SWAP1 DUP4 ISZERO ISZERO MUL OR SWAP1 SSTORE POP PUSH1 0x0 DUP1 SLOAD SWAP1 PUSH2 0x100 EXP SWAP1 DIV PUSH20 0xFFFFFFFFFFFFFFFFFFFFFFFFFFFFFFFFFFFFFFFF AND PUSH20 0xFFFFFFFFFFFFFFFFFFFFFFFFFFFFFFFFFFFFFFFF AND PUSH4 0xA9059CBB CALLER PUSH1 0x1 PUSH1 0x0 DUP6 DUP2 MSTORE PUSH1 0x20 ADD SWAP1 DUP2 MSTORE PUSH1 0x20 ADD PUSH1 0x0 KECCAK256 PUSH1 0x2 ADD SLOAD PUSH1 0x40 MLOAD DUP4 PUSH4 0xFFFFFFFF AND PUSH1 0xE0 SHL DUP2 MSTORE PUSH1 0x4 ADD PUSH2 0x292 SWAP3 SWAP2 SWAP1 PUSH2 0xBDC JUMP JUMPDEST PUSH1 0x20 PUSH1 0x40 MLOAD DUP1 DUP4 SUB DUP2 PUSH1 0x0 DUP8 GAS CALL ISZERO DUP1 ISZERO PUSH2 0x2B1 JUMPI RETURNDATASIZE PUSH1 0x0 DUP1 RETURNDATACOPY RETURNDATASIZE PUSH1 0x0 REVERT JUMPDEST POP POP POP POP PUSH1 0x40 MLOAD RETURNDATASIZE PUSH1 0x1F NOT PUSH1 0x1F DUP3 ADD AND DUP3 ADD DUP1 PUSH1 0x40 MSTORE POP DUP2 ADD SWAP1 PUSH2 0x2D5 SWAP2 SWAP1 PUSH2 0xC31 JUMP JUMPDEST POP PUSH32 0xC6EACC3AA5B2AA77B5A826B832A804CA0B71830EC74F9AA57A15EDD978C31ED6 DUP2 PUSH1 0x40 MLOAD PUSH2 0x305 SWAP2 SWAP1 PUSH2 0xAD8 JUMP JUMPDEST PUSH1 0x40 MLOAD DUP1 SWAP2 SUB SWAP1 LOG1 POP JUMP JUMPDEST PUSH1 0x1 PUSH1 0x20 MSTORE DUP1 PUSH1 0x0 MSTORE PUSH1 0x40 PUSH1 0x0 KECCAK256 PUSH1 0x0 SWAP2 POP SWAP1 POP DUP1 PUSH1 0x0 ADD PUSH1 0x0 SWAP1 SLOAD SWAP1 PUSH2 0x100 EXP SWAP1 DIV PUSH20 0xFFFFFFFFFFFFFFFFFFFFFFFFFFFFFFFFFFFFFFFF AND SWAP1 DUP1 PUSH1 0x1 ADD PUSH1 0x0 SWAP1 SLOAD SWAP1 PUSH2 0x100 EXP SWAP1 DIV PUSH20 0xFFFFFFFFFFFFFFFFFFFFFFFFFFFFFFFFFFFFFFFF AND SWAP1 DUP1 PUSH1 0x2 ADD SLOAD SWAP1 DUP1 PUSH1 0x3 ADD PUSH1 0x0 SWAP1 SLOAD SWAP1 PUSH2 0x100 EXP SWAP1 DIV PUSH1 0xFF AND SWAP1 DUP1 PUSH1 0x3 ADD PUSH1 0x1 SWAP1 SLOAD SWAP1 PUSH2 0x100 EXP SWAP1 DIV PUSH1 0xFF AND SWAP1 POP DUP6 JUMP JUMPDEST PUSH1 0x1 PUSH1 0x0 DUP3 DUP2 MSTORE PUSH1 0x20 ADD SWAP1 DUP2 MSTORE PUSH1 0x20 ADD PUSH1 0x0 KECCAK256 PUSH1 0x1 ADD PUSH1 0x0 SWAP1 SLOAD SWAP1 PUSH2 0x100 EXP SWAP1 DIV PUSH20 0xFFFFFFFFFFFFFFFFFFFFFFFFFFFFFFFFFFFFFFFF AND PUSH20 0xFFFFFFFFFFFFFFFFFFFFFFFFFFFFFFFFFFFFFFFF AND CALLER PUSH20 0xFFFFFFFFFFFFFFFFFFFFFFFFFFFFFFFFFFFFFFFF AND EQ PUSH2 0x444 JUMPI PUSH1 0x40 MLOAD PUSH32 0x8C379A000000000000000000000000000000000000000000000000000000000 DUP2 MSTORE PUSH1 0x4 ADD PUSH2 0x43B SWAP1 PUSH2 0xCAA JUMP JUMPDEST PUSH1 0x40 MLOAD DUP1 SWAP2 SUB SWAP1 REVERT JUMPDEST PUSH1 0x1 PUSH1 0x0 DUP3 DUP2 MSTORE PUSH1 0x20 ADD SWAP1 DUP2 MSTORE PUSH1 0x20 ADD PUSH1 0x0 KECCAK256 PUSH1 0x3 ADD PUSH1 0x0 SWAP1 SLOAD SWAP1 PUSH2 0x100 EXP SWAP1 DIV PUSH1 0xFF AND ISZERO PUSH2 0x4A8 JUMPI PUSH1 0x40 MLOAD PUSH32 0x8C379A000000000000000000000000000000000000000000000000000000000 DUP2 MSTORE PUSH1 0x4 ADD PUSH2 0x49F SWAP1 PUSH2 0xB50 JUMP JUMPDEST PUSH1 0x40 MLOAD DUP1 SWAP2 SUB SWAP1 REVERT JUMPDEST PUSH1 0x1 PUSH1 0x0 DUP3 DUP2 MSTORE PUSH1 0x20 ADD SWAP1 DUP2 MSTORE PUSH1 0x20 ADD PUSH1 0x0 KECCAK256 PUSH1 0x3 ADD PUSH1 0x1 SWAP1 SLOAD SWAP1 PUSH2 0x100 EXP SWAP1 DIV PUSH1 0xFF AND ISZERO PUSH2 0x50C JUMPI PUSH1 0x40 MLOAD PUSH32 0x8C379A000000000000000000000000000000000000000000000000000000000 DUP2 MSTORE PUSH1 0x4 ADD PUSH2 0x503 SWAP1 PUSH2 0xBBC JUMP JUMPDEST PUSH1 0x40 MLOAD DUP1 SWAP2 SUB SWAP1 REVERT JUMPDEST PUSH1 0x1 DUP1 PUSH1 0x0 DUP4 DUP2 MSTORE PUSH1 0x20 ADD SWAP1 DUP2 MSTORE PUSH1 0x20 ADD PUSH1 0x0 KECCAK256 PUSH1 0x3 ADD PUSH1 0x0 PUSH2 0x100 EXP DUP2 SLOAD DUP2 PUSH1 0xFF MUL NOT AND SWAP1 DUP4 ISZERO ISZERO MUL OR SWAP1 SSTORE POP PUSH1 0x0 DUP1 SLOAD SWAP1 PUSH2 0x100 EXP SWAP1 DIV PUSH20 0xFFFFFFFFFFFFFFFFFFFFFFFFFFFFFFFFFFFFFFFF AND PUSH20 0xFFFFFFFFFFFFFFFFFFFFFFFFFFFFFFFFFFFFFFFF AND PUSH4 0xA9059CBB PUSH1 0x1 PUSH1 0x0 DUP5 DUP2 MSTORE PUSH1 0x20 ADD SWAP1 DUP2 MSTORE PUSH1 0x20 ADD PUSH1 0x0 KECCAK256 PUSH1 0x0 ADD PUSH1 0x0 SWAP1 SLOAD SWAP1 PUSH2 0x100 EXP SWAP1 DIV PUSH20 0xFFFFFFFFFFFFFFFFFFFFFFFFFFFFFFFFFFFFFFFF AND PUSH1 0x1 PUSH1 0x0 DUP6 DUP2 MSTORE PUSH1 0x20 ADD SWAP1 DUP2 MSTORE PUSH1 0x20 ADD PUSH1 0x0 KECCAK256 PUSH1 0x2 ADD SLOAD PUSH1 0x40 MLOAD DUP4 PUSH4 0xFFFFFFFF AND PUSH1 0xE0 SHL DUP2 MSTORE PUSH1 0x4 ADD PUSH2 0x5E1 SWAP3 SWAP2 SWAP1 PUSH2 0xBDC JUMP JUMPDEST PUSH1 0x20 PUSH1 0x40 MLOAD DUP1 DUP4 SUB DUP2 PUSH1 0x0 DUP8 GAS CALL ISZERO DUP1 ISZERO PUSH2 0x600 JUMPI RETURNDATASIZE PUSH1 0x0 DUP1 RETURNDATACOPY RETURNDATASIZE PUSH1 0x0 REVERT JUMPDEST POP POP POP POP PUSH1 0x40 MLOAD RETURNDATASIZE PUSH1 0x1F NOT PUSH1 0x1F DUP3 ADD AND DUP3 ADD DUP1 PUSH1 0x40 MSTORE POP DUP2 ADD SWAP1 PUSH2 0x624 SWAP2 SWAP1 PUSH2 0xC31 JUMP JUMPDEST POP PUSH32 0xC1FA7142CFB933D0855114A3BFFDE296944C30B727F297C14D0DB4D553D3A5C7 DUP2 PUSH1 0x40 MLOAD PUSH2 0x654 SWAP2 SWAP1 PUSH2 0xAD8 JUMP JUMPDEST PUSH1 0x40 MLOAD DUP1 SWAP2 SUB SWAP1 LOG1 POP JUMP JUMPDEST PUSH1 0x0 PUSH1 0x2 PUSH1 0x0 DUP2 SLOAD DUP1 SWAP3 SWAP2 SWAP1 PUSH2 0x674 SWAP1 PUSH2 0xCF9 JUMP JUMPDEST SWAP2 SWAP1 POP SSTORE SWAP1 POP PUSH1 0x40 MLOAD DUP1 PUSH1 0xA0 ADD PUSH1 0x40 MSTORE DUP1 DUP5 PUSH20 0xFFFFFFFFFFFFFFFFFFFFFFFFFFFFFFFFFFFFFFFF AND DUP2 MSTORE PUSH1 0x20 ADD CALLER PUSH20 0xFFFFFFFFFFFFFFFFFFFFFFFFFFFFFFFFFFFFFFFF AND DUP2 MSTORE PUSH1 0x20 ADD DUP4 DUP2 MSTORE PUSH1 0x20 ADD PUSH1 0x0 ISZERO ISZERO DUP2 MSTORE PUSH1 0x20 ADD PUSH1 0x0 ISZERO ISZERO DUP2 MSTORE POP PUSH1 0x1 PUSH1 0x0 DUP4 DUP2 MSTORE PUSH1 0x20 ADD SWAP1 DUP2 MSTORE PUSH1 0x20 ADD PUSH1 0x0 KECCAK256 PUSH1 0x0 DUP3 ADD MLOAD DUP2 PUSH1 0x0 ADD PUSH1 0x0 PUSH2 0x100 EXP DUP2 SLOAD DUP2 PUSH20 0xFFFFFFFFFFFFFFFFFFFFFFFFFFFFFFFFFFFFFFFF MUL NOT AND SWAP1 DUP4 PUSH20 0xFFFFFFFFFFFFFFFFFFFFFFFFFFFFFFFFFFFFFFFF AND MUL OR SWAP1 SSTORE POP PUSH1 0x20 DUP3 ADD MLOAD DUP2 PUSH1 0x1 ADD PUSH1 0x0 PUSH2 0x100 EXP DUP2 SLOAD DUP2 PUSH20 0xFFFFFFFFFFFFFFFFFFFFFFFFFFFFFFFFFFFFFFFF MUL NOT AND SWAP1 DUP4 PUSH20 0xFFFFFFFFFFFFFFFFFFFFFFFFFFFFFFFFFFFFFFFF AND MUL OR SWAP1 SSTORE POP PUSH1 0x40 DUP3 ADD MLOAD DUP2 PUSH1 0x2 ADD SSTORE PUSH1 0x60 DUP3 ADD MLOAD DUP2 PUSH1 0x3 ADD PUSH1 0x0 PUSH2 0x100 EXP DUP2 SLOAD DUP2 PUSH1 0xFF MUL NOT AND SWAP1 DUP4 ISZERO ISZERO MUL OR SWAP1 SSTORE POP PUSH1 0x80 DUP3 ADD MLOAD DUP2 PUSH1 0x3 ADD PUSH1 0x1 PUSH2 0x100 EXP DUP2 SLOAD DUP2 PUSH1 0xFF MUL NOT AND SWAP1 DUP4 ISZERO ISZERO MUL OR SWAP1 SSTORE POP SWAP1 POP POP PUSH1 0x0 DUP1 SLOAD SWAP1 PUSH2 0x100 EXP SWAP1 DIV PUSH20 0xFFFFFFFFFFFFFFFFFFFFFFFFFFFFFFFFFFFFFFFF AND PUSH20 0xFFFFFFFFFFFFFFFFFFFFFFFFFFFFFFFFFFFFFFFF AND PUSH4 0x23B872DD CALLER ADDRESS DUP6 PUSH1 0x40 MLOAD DUP5 PUSH4 0xFFFFFFFF AND PUSH1 0xE0 SHL DUP2 MSTORE PUSH1 0x4 ADD PUSH2 0x81E SWAP4 SWAP3 SWAP2 SWAP1 PUSH2 0xD41 JUMP JUMPDEST PUSH1 0x20 PUSH1 0x40 MLOAD DUP1 DUP4 SUB DUP2 PUSH1 0x0 DUP8 GAS CALL ISZERO DUP1 ISZERO PUSH2 0x83D JUMPI RETURNDATASIZE PUSH1 0x0 DUP1 RETURNDATACOPY RETURNDATASIZE PUSH1 0x0 REVERT JUMPDEST POP POP POP POP PUSH1 0x40 MLOAD RETURNDATASIZE PUSH1 0x1F NOT PUSH1 0x1F DUP3 ADD AND DUP3 ADD DUP1 PUSH1 0x40 MSTORE POP DUP2 ADD SWAP1 PUSH2 0x861 SWAP2 SWAP1 PUSH2 0xC31 JUMP JUMPDEST POP PUSH32 0x6CF53AA7292E664152C2EA948C3B3C95D4B05C36DAEB2626D0293473C4A4A153 DUP2 DUP5 DUP5 PUSH1 0x40 MLOAD PUSH2 0x895 SWAP4 SWAP3 SWAP2 SWAP1 PUSH2 0xD78 JUMP JUMPDEST PUSH1 0x40 MLOAD DUP1 SWAP2 SUB SWAP1 LOG1 POP POP POP JUMP JUMPDEST PUSH1 0x0 DUP1 SLOAD SWAP1 PUSH2 0x100 EXP SWAP1 DIV PUSH20 0xFFFFFFFFFFFFFFFFFFFFFFFFFFFFFFFFFFFFFFFF AND DUP2 JUMP JUMPDEST PUSH1 0x2 SLOAD DUP2 JUMP JUMPDEST PUSH1 0x0 DUP1 REVERT JUMPDEST PUSH1 0x0 DUP2 SWAP1 POP SWAP2 SWAP1 POP JUMP JUMPDEST PUSH2 0x8E4 DUP2 PUSH2 0x8D1 JUMP JUMPDEST DUP2 EQ PUSH2 0x8EF JUMPI PUSH1 0x0 DUP1 REVERT JUMPDEST POP JUMP JUMPDEST PUSH1 0x0 DUP2 CALLDATALOAD SWAP1 POP PUSH2 0x901 DUP2 PUSH2 0x8DB JUMP JUMPDEST SWAP3 SWAP2 POP POP JUMP JUMPDEST PUSH1 0x0 PUSH1 0x20 DUP3 DUP5 SUB SLT ISZERO PUSH2 0x91D JUMPI PUSH2 0x91C PUSH2 0x8CC JUMP JUMPDEST JUMPDEST PUSH1 0x0 PUSH2 0x92B DUP5 DUP3 DUP6 ADD PUSH2 0x8F2 JUMP JUMPDEST SWAP2 POP POP SWAP3 SWAP2 POP POP JUMP JUMPDEST PUSH1 0x0 PUSH20 0xFFFFFFFFFFFFFFFFFFFFFFFFFFFFFFFFFFFFFFFF DUP3 AND SWAP1 POP SWAP2 SWAP1 POP JUMP JUMPDEST PUSH1 0x0 PUSH2 0x95F DUP3 PUSH2 0x934 JUMP JUMPDEST SWAP1 POP SWAP2 SWAP1 POP JUMP JUMPDEST PUSH2 0x96F DUP2 PUSH2 0x954 JUMP JUMPDEST DUP3 MSTORE POP POP JUMP JUMPDEST PUSH2 0x97E DUP2 PUSH2 0x8D1 JUMP JUMPDEST DUP3 MSTORE POP POP JUMP JUMPDEST PUSH1 0x0 DUP2 ISZERO ISZERO SWAP1 POP SWAP2 SWAP1 POP JUMP JUMPDEST PUSH2 0x999 DUP2 PUSH2 0x984 JUMP JUMPDEST DUP3 MSTORE POP POP JUMP JUMPDEST PUSH1 0x0 PUSH1 0xA0 DUP3 ADD SWAP1 POP PUSH2 0x9B4 PUSH1 0x0 DUP4 ADD DUP9 PUSH2 0x966 JUMP JUMPDEST PUSH2 0x9C1 PUSH1 0x20 DUP4 ADD DUP8 PUSH2 0x966 JUMP JUMPDEST PUSH2 0x9CE PUSH1 0x40 DUP4 ADD DUP7 PUSH2 0x975 JUMP JUMPDEST PUSH2 0x9DB PUSH1 0x60 DUP4 ADD DUP6 PUSH2 0x990 JUMP JUMPDEST PUSH2 0x9E8 PUSH1 0x80 DUP4 ADD DUP5 PUSH2 0x990 JUMP JUMPDEST SWAP7 SWAP6 POP POP POP POP POP POP JUMP JUMPDEST PUSH2 0x9FB DUP2 PUSH2 0x954 JUMP JUMPDEST DUP2 EQ PUSH2 0xA06 JUMPI PUSH1 0x0 DUP1 REVERT JUMPDEST POP JUMP JUMPDEST PUSH1 0x0 DUP2 CALLDATALOAD SWAP1 POP PUSH2 0xA18 DUP2 PUSH2 0x9F2 JUMP JUMPDEST SWAP3 SWAP2 POP POP JUMP JUMPDEST PUSH1 0x0 DUP1 PUSH1 0x40 DUP4 DUP6 SUB SLT ISZERO PUSH2 0xA35 JUMPI PUSH2 0xA34 PUSH2 0x8CC JUMP JUMPDEST JUMPDEST PUSH1 0x0 PUSH2 0xA43 DUP6 DUP3 DUP7 ADD PUSH2 0xA09 JUMP JUMPDEST SWAP3 POP POP PUSH1 0x20 PUSH2 0xA54 DUP6 DUP3 DUP7 ADD PUSH2 0x8F2 JUMP JUMPDEST SWAP2 POP POP SWAP3 POP SWAP3 SWAP1 POP JUMP JUMPDEST PUSH1 0x0 DUP2 SWAP1 POP SWAP2 SWAP1 POP JUMP JUMPDEST PUSH1 0x0 PUSH2 0xA83 PUSH2 0xA7E PUSH2 0xA79 DUP5 PUSH2 0x934 JUMP JUMPDEST PUSH2 0xA5E JUMP JUMPDEST PUSH2 0x934 JUMP JUMPDEST SWAP1 POP SWAP2 SWAP1 POP JUMP JUMPDEST PUSH1 0x0 PUSH2 0xA95 DUP3 PUSH2 0xA68 JUMP JUMPDEST SWAP1 POP SWAP2 SWAP1 POP JUMP JUMPDEST PUSH1 0x0 PUSH2 0xAA7 DUP3 PUSH2 0xA8A JUMP JUMPDEST SWAP1 POP SWAP2 SWAP1 POP JUMP JUMPDEST PUSH2 0xAB7 DUP2 PUSH2 0xA9C JUMP JUMPDEST DUP3 MSTORE POP POP JUMP JUMPDEST PUSH1 0x0 PUSH1 0x20 DUP3 ADD SWAP1 POP PUSH2 0xAD2 PUSH1 0x0 DUP4 ADD DUP5 PUSH2 0xAAE JUMP JUMPDEST SWAP3 SWAP2 POP POP JUMP JUMPDEST PUSH1 0x0 PUSH1 0x20 DUP3 ADD SWAP1 POP PUSH2 0xAED PUSH1 0x0 DUP4 ADD DUP5 PUSH2 0x975 JUMP JUMPDEST SWAP3 SWAP2 POP POP JUMP JUMPDEST PUSH1 0x0 DUP3 DUP3 MSTORE PUSH1 0x20 DUP3 ADD SWAP1 POP SWAP3 SWAP2 POP POP JUMP JUMPDEST PUSH32 0x5461736B20616C726561647920636F6D706C6574656400000000000000000000 PUSH1 0x0 DUP3 ADD MSTORE POP JUMP JUMPDEST PUSH1 0x0 PUSH2 0xB3A PUSH1 0x16 DUP4 PUSH2 0xAF3 JUMP JUMPDEST SWAP2 POP PUSH2 0xB45 DUP3 PUSH2 0xB04 JUMP JUMPDEST PUSH1 0x20 DUP3 ADD SWAP1 POP SWAP2 SWAP1 POP JUMP JUMPDEST PUSH1 0x0 PUSH1 0x20 DUP3 ADD SWAP1 POP DUP2 DUP2 SUB PUSH1 0x0 DUP4 ADD MSTORE PUSH2 0xB69 DUP2 PUSH2 0xB2D JUMP JUMPDEST SWAP1 POP SWAP2 SWAP1 POP JUMP JUMPDEST PUSH32 0x5461736B20686173206265656E2063616E63656C6C6564000000000000000000 PUSH1 0x0 DUP3 ADD MSTORE POP JUMP JUMPDEST PUSH1 0x0 PUSH2 0xBA6 PUSH1 0x17 DUP4 PUSH2 0xAF3 JUMP JUMPDEST SWAP2 POP PUSH2 0xBB1 DUP3 PUSH2 0xB70 JUMP JUMPDEST PUSH1 0x20 DUP3 ADD SWAP1 POP SWAP2 SWAP1 POP JUMP JUMPDEST PUSH1 0x0 PUSH1 0x20 DUP3 ADD SWAP1 POP DUP2 DUP2 SUB PUSH1 0x0 DUP4 ADD MSTORE PUSH2 0xBD5 DUP2 PUSH2 0xB99 JUMP JUMPDEST SWAP1 POP SWAP2 SWAP1 POP JUMP JUMPDEST PUSH1 0x0 PUSH1 0x40 DUP3 ADD SWAP1 POP PUSH2 0xBF1 PUSH1 0x0 DUP4 ADD DUP6 PUSH2 0x966 JUMP JUMPDEST PUSH2 0xBFE PUSH1 0x20 DUP4 ADD DUP5 PUSH2 0x975 JUMP JUMPDEST SWAP4 SWAP3 POP POP POP JUMP JUMPDEST PUSH2 0xC0E DUP2 PUSH2 0x984 JUMP JUMPDEST DUP2 EQ PUSH2 0xC19 JUMPI PUSH1 0x0 DUP1 REVERT JUMPDEST POP JUMP JUMPDEST PUSH1 0x0 DUP2 MLOAD SWAP1 POP PUSH2 0xC2B DUP2 PUSH2 0xC05 JUMP JUMPDEST SWAP3 SWAP2 POP POP JUMP JUMPDEST PUSH1 0x0 PUSH1 0x20 DUP3 DUP5 SUB SLT ISZERO PUSH2 0xC47 JUMPI PUSH2 0xC46 PUSH2 0x8CC JUMP JUMPDEST JUMPDEST PUSH1 0x0 PUSH2 0xC55 DUP5 DUP3 DUP6 ADD PUSH2 0xC1C JUMP JUMPDEST SWAP2 POP POP SWAP3 SWAP2 POP POP JUMP JUMPDEST PUSH32 0x4E6F7420617574686F72697A656420746F20636F6D706C657465207461736B00 PUSH1 0x0 DUP3 ADD MSTORE POP JUMP JUMPDEST PUSH1 0x0 PUSH2 0xC94 PUSH1 0x1F DUP4 PUSH2 0xAF3 JUMP JUMPDEST SWAP2 POP PUSH2 0xC9F DUP3 PUSH2 0xC5E JUMP JUMPDEST PUSH1 0x20 DUP3 ADD SWAP1 POP SWAP2 SWAP1 POP JUMP JUMPDEST PUSH1 0x0 PUSH1 0x20 DUP3 ADD SWAP1 POP DUP2 DUP2 SUB PUSH1 0x0 DUP4 ADD MSTORE PUSH2 0xCC3 DUP2 PUSH2 0xC87 JUMP JUMPDEST SWAP1 POP SWAP2 SWAP1 POP JUMP JUMPDEST PUSH32 0x4E487B7100000000000000000000000000000000000000000000000000000000 PUSH1 0x0 MSTORE PUSH1 0x11 PUSH1 0x4 MSTORE PUSH1 0x24 PUSH1 0x0 REVERT JUMPDEST PUSH1 0x0 PUSH2 0xD04 DUP3 PUSH2 0x8D1 JUMP JUMPDEST SWAP2 POP PUSH32 0xFFFFFFFFFFFFFFFFFFFFFFFFFFFFFFFFFFFFFFFFFFFFFFFFFFFFFFFFFFFFFFFF DUP3 SUB PUSH2 0xD36 JUMPI PUSH2 0xD35 PUSH2 0xCCA JUMP JUMPDEST JUMPDEST PUSH1 0x1 DUP3 ADD SWAP1 POP SWAP2 SWAP1 POP JUMP JUMPDEST PUSH1 0x0 PUSH1 0x60 DUP3 ADD SWAP1 POP PUSH2 0xD56 PUSH1 0x0 DUP4 ADD DUP7 PUSH2 0x966 JUMP JUMPDEST PUSH2 0xD63 PUSH1 0x20 DUP4 ADD DUP6 PUSH2 0x966 JUMP JUMPDEST PUSH2 0xD70 PUSH1 0x40 DUP4 ADD DUP5 PUSH2 0x975 JUMP JUMPDEST SWAP5 SWAP4 POP POP POP POP JUMP JUMPDEST PUSH1 0x0 PUSH1 0x60 DUP3 ADD SWAP1 POP PUSH2 0xD8D PUSH1 0x0 DUP4 ADD DUP7 PUSH2 0x975 JUMP JUMPDEST PUSH2 0xD9A PUSH1 0x20 DUP4 ADD DUP6 PUSH2 0x966 JUMP JUMPDEST PUSH2 0xDA7 PUSH1 0x40 DUP4 ADD DUP5 PUSH2 0x975 JUMP JUMPDEST SWAP5 SWAP4 POP POP POP POP JUMP INVALID LOG2 PUSH5 0x6970667358 0x22 SLT KECCAK256 0xD8 SWAP12 0xE9 SWAP14 0xA5 PUSH25 0xDE75664385EF2F1E1EC0A9FD3053FCC6F06138E54CDB95977 0xB1 PUSH5 0x736F6C6343 STOP ADDMOD OR STOP CALLER "},"methodIdentifiers":{"cancelTask(uint256)":"7eec20a8","completeTask(uint256)":"e1e29558","createTask(address,uint256)":"f50e99fc","nextTaskId()":"fdc3d8d7","tasks(uint256)":"8d977672","token()":"fc0c546a"}}}}}