{
  "_format": "hh-sol-artifact-1",
  "contractName": "OpenTribeToken",
  "sourceName": "contracts/OpenTribeToken.sol",
  "abi": [
    {
      "inputs": [
        {
          "internalType": "address",
          "name": "initialOwner",
          "type": "address"
        }
      ],
      "stateMutability": "nonpayable",
      "type": "constructor"
    },
    {
      "inputs": [
        {
          "internalType": "address",
          "name": "spender",
          "type": "address"
        },
        {
          "internalType": "uint256",
          "name": "allowance",
          "type": "uint256"
        },
        {
          "internalType": "uint256",
          "name": "needed",
          "type": "uint256"
        }
      ],
      "name": "ERC20InsufficientAllowance",
      "type": "error"
    },
    {
      "inputs": [
        {
          "internalType": "address",
          "name": "sender",
          "type": "address"
        },
        {
          "internalType": "uint256",
          "name": "balance",
          "type": "uint256"
        },
        {
          "internalType": "uint256",
          "name": "needed",
          "type": "uint256"
        }
      ],
      "name": "ERC20InsufficientBalance",
      "type": "error"
    },
    {
      "inputs": [
        {
          "internalType": "address",
          "name": "approver",
          "type": "address"
        }
      ],
      "name": "ERC20InvalidApprover",
      "type": "error"
    },
    {
      "inputs": [
        {
          "internalType": "address",
          "name": "receiver",
          "type": "address"
        }
      ],
      "name": "ERC20InvalidReceiver",
      "type": "error"
    },
    {
      "inputs": [
        {
          "internalType": "address",
          "name": "sender",
          "type": "address"
        }
      ],
      "name": "ERC20InvalidSender",
      "type": "error"
    },
    {
      "inputs": [
        {
          "internalType": "address",
          "name": "spender",
          "type": "address"
        }
      ],
      "name": "ERC20InvalidSpender",
      "type": "error"
    },
    {
      "inputs": [
        {
          "internalType": "address",
          "name": "owner",
          "type": "address"
        }
      ],
      "name": "OwnableInvalidOwner",
      "type": "error"
    },
    {
      "inputs": [
        {
          "internalType": "address",
          "name": "account",
          "type": "address"
        }
      ],
      "name": "OwnableUnauthorizedAccount",
      "type": "error"
    },
    {
      "anonymous": false,
      "inputs": [
        {
          "indexed": true,
          "internalType": "address",
          "name": "owner",
          "type": "address"
        },
        {
          "indexed": true,
          "internalType": "address",
          "name": "spender",
          "type": "address"
        },
        {
          "indexed": false,
          "internalType": "uint256",
          "name": "value",
          "type": "uint256"
        }
      ],
      "name": "Approval",
      "type": "event"
    },
    {
      "anonymous": false,
      "inputs": [
        {
          "indexed": true,
          "internalType": "address",
          "name": "previousOwner",
          "type": "address"
        },
        {
          "indexed": true,
          "internalType": "address",
          "name": "newOwner",
          "type": "address"
        }
      ],
      "name": "OwnershipTransferred",
      "type": "event"
    },
    {
      "anonymous": false,
      "inputs": [
        {
          "indexed": true,
          "internalType": "address",
          "name": "from",
          "type": "address"
        },
        {
          "indexed": true,
          "internalType": "address",
          "name": "to",
          "type": "address"
        },
        {
          "indexed": false,
          "internalType": "uint256",
          "name": "value",
          "type": "uint256"
        }
      ],
      "name": "Transfer",
      "type": "event"
    },
    {
      "inputs": [
        {
          "internalType": "address",
          "name": "owner",
          "type": "address"
        },
        {
          "internalType": "address",
          "name": "spender",
          "type": "address"
        }
      ],
      "name": "allowance",
      "outputs": [
        {
          "internalType": "uint256",
          "name": "",
          "type": "uint256"
        }
      ],
      "stateMutability": "view",
      "type": "function"
    },
    {
      "inputs": [
        {
          "internalType": "address",
          "name": "spender",
          "type": "address"
        },
        {
          "internalType": "uint256",
          "name": "value",
          "type": "uint256"
        }
      ],
      "name": "approve",
      "outputs": [
        {
          "internalType": "bool",
          "name": "",
          "type": "bool"
        }
      ],
      "stateMutability": "nonpayable",
      "type": "function"
    },
    {
      "inputs": [
        {
          "internalType": "address",
          "name": "account",
          "type": "address"
        }
      ],
      "name": "balanceOf",
      "outputs": [
        {
          "internalType": "uint256",
          "name": "",
          "type": "uint256"
        }
      ],
      "stateMutability": "view",
      "type": "function"
    },
    {
      "inputs": [
        {
          "internalType": "uint256",
          "name": "value",
          "type": "uint256"
        }
      ],
      "name": "burn",
      "outputs": [],
      "stateMutability": "nonpayable",
      "type": "function"
    },
    {
      "inputs": [
        {
          "internalType": "address",
          "name": "account",
          "type": "address"
        },
        {
          "internalType": "uint256",
          "name": "value",
          "type": "uint256"
        }
      ],
      "name": "burnFrom",
      "outputs": [],
      "stateMutability": "nonpayable",
      "type": "function"
    },
    {
      "inputs": [],
      "name": "decimals",
      "outputs": [
        {
          "internalType": "uint8",
          "name": "",
          "type": "uint8"
        }
      ],
      "stateMutability": "view",
      "type": "function"
    },
    {
      "inputs": [
        {
          "internalType": "address",
          "name": "to",
          "type": "address"
        },
        {
          "internalType": "uint256",
          "name": "amount",
          "type": "uint256"
        }
      ],
      "name": "mint",
      "outputs": [],
      "stateMutability": "nonpayable",
      "type": "function"
    },
    {
      "inputs": [],
      "name": "name",
      "outputs": [
        {
          "internalType": "string",
          "name": "",
          "type": "string"
        }
      ],
      "stateMutability": "view",
      "type": "function"
    },
    {
      "inputs": [],
      "name": "owner",
      "outputs": [
        {
          "internalType": "address",
          "name": "",
          "type": "address"
        }
      ],
      "stateMutability": "view",
      "type": "function"
    },
    {
      "inputs": [],
      "name": "renounceOwnership",
      "outputs": [],
      "stateMutability": "nonpayable",
      "type": "function"
    },
    {
      "inputs": [],
      "name": "symbol",
      "outputs": [
        {
          "internalType": "string",
          "name": "",
          "type": "string"
        }
      ],
      "stateMutability": "view",
      "type": "function"
    },
    {
      "inputs": [],
      "name": "totalSupply",
      "outputs": [
        {
          "internalType": "uint256",
          "name": "",
          "type": "uint256"
        }
      ],
      "stateMutability": "view",
      "type": "function"
    },
    {
      "inputs": [
        {
          "internalType": "address",
          "name": "to",
          "type": "address"
        },
        {
          "internalType": "uint256",
          "name": "value",
          "type": "uint256"
        }
      ],
      "name": "transfer",
      "outputs": [
        {
          "internalType": "bool",
          "name": "",
          "type": "bool"
        }
      ],
      "stateMutability": "nonpayable",
      "type": "function"
    },
    {
      "inputs": [
        {
          "internalType": "address",
          "name": "from",
          "type": "address"
        },
        {
          "internalType": "address",
          "name": "to",
          "type": "address"
        },
        {
          "internalType": "uint256",
          "name": "value",
          "type": "uint256"
        }
      ],
      "name": "transferFrom",
      "outputs": [
        {
          "internalType": "bool",
          "name": "",
          "type": "bool"
        }
      ],
      "stateMutability": "nonpayable",
      "type": "function"
    },
    {
      "inputs": [
        {
          "internalType": "address",
          "name": "newOwner",
          "type": "address"
        }
      ],
      "name": "transferOwnership",
      "outputs": [],
      "stateMutability": "nonpayable",
      "type": "function"
    }
  ],
  "bytecode": "0x60806040523480156200001157600080fd5b5060405162001ab238038062001ab2833981810160405281019062000037919062000406565b806040518060400160405280600781526020017f4f54546f6b656e000000000000000000000000000000000000000000000000008152506040518060400160405280600481526020017f4f54544f000000000000000000000000000000000000000000000000000000008152508160039081620000b59190620006b2565b508060049081620000c79190620006b2565b505050600073ffffffffffffffffffffffffffffffffffffffff168173ffffffffffffffffffffffffffffffffffffffff16036200013f5760006040517f1e4fbdf7000000000000000000000000000000000000000000000000000000008152600401620001369190620007aa565b60405180910390fd5b62000150816200016960201b60201c565b5062000162336200022f60201b60201c565b50620007c7565b6000600560009054906101000a900473ffffffffffffffffffffffffffffffffffffffff16905081600560006101000a81548173ffffffffffffffffffffffffffffffffffffffff021916908373ffffffffffffffffffffffffffffffffffffffff1602179055508173ffffffffffffffffffffffffffffffffffffffff168173ffffffffffffffffffffffffffffffffffffffff167f8be0079c531659141344cd1fd0a4f28419497f9722a3daafe3b4186f6b6457e060405160405180910390a35050565b6200023f620002c860201b60201c565b600073ffffffffffffffffffffffffffffffffffffffff168173ffffffffffffffffffffffffffffffffffffffff1603620002b45760006040517f1e4fbdf7000000000000000000000000000000000000000000000000000000008152600401620002ab9190620007aa565b60405180910390fd5b620002c5816200016960201b60201c565b50565b620002d86200036a60201b60201c565b73ffffffffffffffffffffffffffffffffffffffff16620002fe6200037260201b60201c565b73ffffffffffffffffffffffffffffffffffffffff161462000368576200032a6200036a60201b60201c565b6040517f118cdaa70000000000000000000000000000000000000000000000000000000081526004016200035f9190620007aa565b60405180910390fd5b565b600033905090565b6000600560009054906101000a900473ffffffffffffffffffffffffffffffffffffffff16905090565b600080fd5b600073ffffffffffffffffffffffffffffffffffffffff82169050919050565b6000620003ce82620003a1565b9050919050565b620003e081620003c1565b8114620003ec57600080fd5b50565b6000815190506200040081620003d5565b92915050565b6000602082840312156200041f576200041e6200039c565b5b60006200042f84828501620003ef565b91505092915050565b600081519050919050565b7f4e487b7100000000000000000000000000000000000000000000000000000000600052604160045260246000fd5b7f4e487b7100000000000000000000000000000000000000000000000000000000600052602260045260246000fd5b60006002820490506001821680620004ba57607f821691505b602082108103620004d057620004cf62000472565b5b50919050565b60008190508160005260206000209050919050565b60006020601f8301049050919050565b600082821b905092915050565b6000600883026200053a7fffffffffffffffffffffffffffffffffffffffffffffffffffffffffffffffff82620004fb565b620005468683620004fb565b95508019841693508086168417925050509392505050565b6000819050919050565b6000819050919050565b6000620005936200058d62000587846200055e565b62000568565b6200055e565b9050919050565b6000819050919050565b620005af8362000572565b620005c7620005be826200059a565b84845462000508565b825550505050565b600090565b620005de620005cf565b620005eb818484620005a4565b505050565b5b81811015620006135762000607600082620005d4565b600181019050620005f1565b5050565b601f82111562000662576200062c81620004d6565b6200063784620004eb565b8101602085101562000647578190505b6200065f6200065685620004eb565b830182620005f0565b50505b505050565b600082821c905092915050565b6000620006876000198460080262000667565b1980831691505092915050565b6000620006a2838362000674565b9150826002028217905092915050565b620006bd8262000438565b67ffffffffffffffff811115620006d957620006d862000443565b5b620006e58254620004a1565b620006f282828562000617565b600060209050601f8311600181146200072a576000841562000715578287015190505b62000721858262000694565b86555062000791565b601f1984166200073a86620004d6565b60005b8281101562000764578489015182556001820191506020850194506020810190506200073d565b8683101562000784578489015162000780601f89168262000674565b8355505b6001600288020188555050505b505050505050565b620007a481620003c1565b82525050565b6000602082019050620007c1600083018462000799565b92915050565b6112db80620007d76000396000f3fe608060405234801561001057600080fd5b50600436106100f55760003560e01c806370a082311161009757806395d89b411161006657806395d89b4114610260578063a9059cbb1461027e578063dd62ed3e146102ae578063f2fde38b146102de576100f5565b806370a08231146101ec578063715018a61461021c57806379cc6790146102265780638da5cb5b14610242576100f5565b806323b872dd116100d357806323b872dd14610166578063313ce5671461019657806340c10f19146101b457806342966c68146101d0576100f5565b806306fdde03146100fa578063095ea7b31461011857806318160ddd14610148575b600080fd5b6101026102fa565b60405161010f9190610f02565b60405180910390f35b610132600480360381019061012d9190610fbd565b61038c565b60405161013f9190611018565b60405180910390f35b6101506103af565b60405161015d9190611042565b60405180910390f35b610180600480360381019061017b919061105d565b6103b9565b60405161018d9190611018565b60405180910390f35b61019e6103e8565b6040516101ab91906110cc565b60405180910390f35b6101ce60048036038101906101c99190610fbd565b6103f1565b005b6101ea60048036038101906101e591906110e7565b610407565b005b61020660048036038101906102019190611114565b61041b565b6040516102139190611042565b60405180910390f35b610224610463565b005b610240600480360381019061023b9190610fbd565b610477565b005b61024a610497565b6040516102579190611150565b60405180910390f35b6102686104c1565b6040516102759190610f02565b60405180910390f35b61029860048036038101906102939190610fbd565b610553565b6040516102a59190611018565b60405180910390f35b6102c860048036038101906102c3919061116b565b610576565b6040516102d59190611042565b60405180910390f35b6102f860048036038101906102f39190611114565b6105fd565b005b606060038054610309906111da565b80601f0160208091040260200160405190810160405280929190818152602001828054610335906111da565b80156103825780601f1061035757610100808354040283529160200191610382565b820191906000526020600020905b81548152906001019060200180831161036557829003601f168201915b5050505050905090565b600080610397610683565b90506103a481858561068b565b600191505092915050565b6000600254905090565b6000806103c4610683565b90506103d185828561069d565b6103dc858585610731565b60019150509392505050565b60006012905090565b6103f9610825565b61040382826108ac565b5050565b610418610412610683565b8261092e565b50565b60008060008373ffffffffffffffffffffffffffffffffffffffff1673ffffffffffffffffffffffffffffffffffffffff168152602001908152602001600020549050919050565b61046b610825565b61047560006109b0565b565b61048982610483610683565b8361069d565b610493828261092e565b5050565b6000600560009054906101000a900473ffffffffffffffffffffffffffffffffffffffff16905090565b6060600480546104d0906111da565b80601f01602080910402602001604051908101604052809291908181526020018280546104fc906111da565b80156105495780601f1061051e57610100808354040283529160200191610549565b820191906000526020600020905b81548152906001019060200180831161052c57829003601f168201915b5050505050905090565b60008061055e610683565b905061056b818585610731565b600191505092915050565b6000600160008473ffffffffffffffffffffffffffffffffffffffff1673ffffffffffffffffffffffffffffffffffffffff16815260200190815260200160002060008373ffffffffffffffffffffffffffffffffffffffff1673ffffffffffffffffffffffffffffffffffffffff16815260200190815260200160002054905092915050565b610605610825565b600073ffffffffffffffffffffffffffffffffffffffff168173ffffffffffffffffffffffffffffffffffffffff16036106775760006040517f1e4fbdf700000000000000000000000000000000000000000000000000000000815260040161066e9190611150565b60405180910390fd5b610680816109b0565b50565b600033905090565b6106988383836001610a76565b505050565b60006106a98484610576565b90507fffffffffffffffffffffffffffffffffffffffffffffffffffffffffffffffff811461072b578181101561071b578281836040517ffb8f41b20000000000000000000000000000000000000000000000000000000081526004016107129392919061120b565b60405180910390fd5b61072a84848484036000610a76565b5b50505050565b600073ffffffffffffffffffffffffffffffffffffffff168373ffffffffffffffffffffffffffffffffffffffff16036107a35760006040517f96c6fd1e00000000000000000000000000000000000000000000000000000000815260040161079a9190611150565b60405180910390fd5b600073ffffffffffffffffffffffffffffffffffffffff168273ffffffffffffffffffffffffffffffffffffffff16036108155760006040517fec442f0500000000000000000000000000000000000000000000000000000000815260040161080c9190611150565b60405180910390fd5b610820838383610c4d565b505050565b61082d610683565b73ffffffffffffffffffffffffffffffffffffffff1661084b610497565b73ffffffffffffffffffffffffffffffffffffffff16146108aa5761086e610683565b6040517f118cdaa70000000000000000000000000000000000000000000000000000000081526004016108a19190611150565b60405180910390fd5b565b600073ffffffffffffffffffffffffffffffffffffffff168273ffffffffffffffffffffffffffffffffffffffff160361091e5760006040517fec442f050000000000000000000000000000000000000000000000000000000081526004016109159190611150565b60405180910390fd5b61092a60008383610c4d565b5050565b600073ffffffffffffffffffffffffffffffffffffffff168273ffffffffffffffffffffffffffffffffffffffff16036109a05760006040517f96c6fd1e0000000000000000000000000000000000000000000000000000000081526004016109979190611150565b60405180910390fd5b6109ac82600083610c4d565b5050565b6000600560009054906101000a900473ffffffffffffffffffffffffffffffffffffffff16905081600560006101000a81548173ffffffffffffffffffffffffffffffffffffffff021916908373ffffffffffffffffffffffffffffffffffffffff1602179055508173ffffffffffffffffffffffffffffffffffffffff168173ffffffffffffffffffffffffffffffffffffffff167f8be0079c531659141344cd1fd0a4f28419497f9722a3daafe3b4186f6b6457e060405160405180910390a35050565b600073ffffffffffffffffffffffffffffffffffffffff168473ffffffffffffffffffffffffffffffffffffffff1603610ae85760006040517fe602df05000000000000000000000000000000000000000000000000000000008152600401610adf9190611150565b60405180910390fd5b600073ffffffffffffffffffffffffffffffffffffffff168373ffffffffffffffffffffffffffffffffffffffff1603610b5a5760006040517f94280d62000000000000000000000000000000000000000000000000000000008152600401610b519190611150565b60405180910390fd5b81600160008673ffffffffffffffffffffffffffffffffffffffff1673ffffffffffffffffffffffffffffffffffffffff16815260200190815260200160002060008573ffffffffffffffffffffffffffffffffffffffff1673ffffffffffffffffffffffffffffffffffffffff168152602001908152602001600020819055508015610c47578273ffffffffffffffffffffffffffffffffffffffff168473ffffffffffffffffffffffffffffffffffffffff167f8c5be1e5ebec7d5bd14f71427d1e84f3dd0314c0f7b2291e5b200ac8c7c3b92584604051610c3e9190611042565b60405180910390a35b50505050565b600073ffffffffffffffffffffffffffffffffffffffff168373ffffffffffffffffffffffffffffffffffffffff1603610c9f578060026000828254610c939190611271565b92505081905550610d72565b60008060008573ffffffffffffffffffffffffffffffffffffffff1673ffffffffffffffffffffffffffffffffffffffff16815260200190815260200160002054905081811015610d2b578381836040517fe450d38c000000000000000000000000000000000000000000000000000000008152600401610d229392919061120b565b60405180910390fd5b8181036000808673ffffffffffffffffffffffffffffffffffffffff1673ffffffffffffffffffffffffffffffffffffffff16815260200190815260200160002081905550505b600073ffffffffffffffffffffffffffffffffffffffff168273ffffffffffffffffffffffffffffffffffffffff1603610dbb5780600260008282540392505081905550610e08565b806000808473ffffffffffffffffffffffffffffffffffffffff1673ffffffffffffffffffffffffffffffffffffffff168152602001908152602001600020600082825401925050819055505b8173ffffffffffffffffffffffffffffffffffffffff168373ffffffffffffffffffffffffffffffffffffffff167fddf252ad1be2c89b69c2b068fc378daa952ba7f163c4a11628f55a4df523b3ef83604051610e659190611042565b60405180910390a3505050565b600081519050919050565b600082825260208201905092915050565b60005b83811015610eac578082015181840152602081019050610e91565b60008484015250505050565b6000601f19601f8301169050919050565b6000610ed482610e72565b610ede8185610e7d565b9350610eee818560208601610e8e565b610ef781610eb8565b840191505092915050565b60006020820190508181036000830152610f1c8184610ec9565b905092915050565b600080fd5b600073ffffffffffffffffffffffffffffffffffffffff82169050919050565b6000610f5482610f29565b9050919050565b610f6481610f49565b8114610f6f57600080fd5b50565b600081359050610f8181610f5b565b92915050565b6000819050919050565b610f9a81610f87565b8114610fa557600080fd5b50565b600081359050610fb781610f91565b92915050565b60008060408385031215610fd457610fd3610f24565b5b6000610fe285828601610f72565b9250506020610ff385828601610fa8565b9150509250929050565b60008115159050919050565b61101281610ffd565b82525050565b600060208201905061102d6000830184611009565b92915050565b61103c81610f87565b82525050565b60006020820190506110576000830184611033565b92915050565b60008060006060848603121561107657611075610f24565b5b600061108486828701610f72565b935050602061109586828701610f72565b92505060406110a686828701610fa8565b9150509250925092565b600060ff82169050919050565b6110c6816110b0565b82525050565b60006020820190506110e160008301846110bd565b92915050565b6000602082840312156110fd576110fc610f24565b5b600061110b84828501610fa8565b91505092915050565b60006020828403121561112a57611129610f24565b5b600061113884828501610f72565b91505092915050565b61114a81610f49565b82525050565b60006020820190506111656000830184611141565b92915050565b6000806040838503121561118257611181610f24565b5b600061119085828601610f72565b92505060206111a185828601610f72565b9150509250929050565b7f4e487b7100000000000000000000000000000000000000000000000000000000600052602260045260246000fd5b600060028204905060018216806111f257607f821691505b602082108103611205576112046111ab565b5b50919050565b60006060820190506112206000830186611141565b61122d6020830185611033565b61123a6040830184611033565b949350505050565b7f4e487b7100000000000000000000000000000000000000000000000000000000600052601160045260246000fd5b600061127c82610f87565b915061128783610f87565b925082820190508082111561129f5761129e611242565b5b9291505056fea264697066735822122055a562d2ea0b9065d00d3e2c0f953b9a62f73181848236847295e9c4e7b5ddcb64736f6c63430008170033",
  "linkReferences": {},
  "deployedLinkReferences": {}
}